{
  "_format": "hh-sol-artifact-1",
  "contractName": "DataProvider",
  "sourceName": "contracts/DataProvider/DataProvider.sol",
  "abi": [
    {
      "inputs": [
        {
          "internalType": "contract ILendingPoolAddressesProvider",
          "name": "addressesProvider",
          "type": "address"
        }
      ],
      "stateMutability": "nonpayable",
      "type": "constructor"
    },
    {
      "inputs": [],
      "name": "ADDRESSES_PROVIDER",
      "outputs": [
        {
          "internalType": "contract ILendingPoolAddressesProvider",
          "name": "",
          "type": "address"
        }
      ],
      "stateMutability": "view",
      "type": "function"
    },
    {
      "inputs": [],
      "name": "getAddressesProvider",
      "outputs": [
        {
          "internalType": "contract ILendingPoolAddressesProvider",
          "name": "",
          "type": "address"
        }
      ],
      "stateMutability": "view",
      "type": "function"
    },
    {
      "inputs": [
        {
          "internalType": "uint256",
          "name": "id",
          "type": "uint256"
        }
      ],
      "name": "getAllATokens",
      "outputs": [
        {
          "components": [
            {
              "internalType": "string",
              "name": "symbol",
              "type": "string"
            },
            {
              "internalType": "address",
              "name": "tokenAddress",
              "type": "address"
            }
          ],
          "internalType": "struct IDataProvider.TokenData[]",
          "name": "",
          "type": "tuple[]"
        }
      ],
      "stateMutability": "view",
      "type": "function"
    },
    {
      "inputs": [],
      "name": "getAllPoolData",
      "outputs": [
        {
          "components": [
            {
              "internalType": "address",
              "name": "pool",
              "type": "address"
            },
            {
              "internalType": "uint256",
              "name": "id",
              "type": "uint256"
            },
            {
              "internalType": "string",
              "name": "name",
              "type": "string"
            },
            {
              "internalType": "bool",
              "name": "paused",
              "type": "bool"
            }
          ],
          "internalType": "struct IDataProvider.PoolData[]",
          "name": "",
          "type": "tuple[]"
        }
      ],
      "stateMutability": "view",
      "type": "function"
    },
    {
      "inputs": [
        {
          "internalType": "uint256",
          "name": "id",
          "type": "uint256"
        }
      ],
      "name": "getAllReserveData",
      "outputs": [
        {
          "components": [
            {
              "components": [
                {
                  "internalType": "uint256",
                  "name": "ltv",
                  "type": "uint256"
                },
                {
                  "internalType": "uint256",
                  "name": "liquidationThreshold",
                  "type": "uint256"
                },
                {
                  "internalType": "uint256",
                  "name": "liquidationBonus",
                  "type": "uint256"
                },
                {
                  "internalType": "uint8",
                  "name": "decimals",
                  "type": "uint8"
                },
                {
                  "internalType": "bool",
                  "name": "active",
                  "type": "bool"
                },
                {
                  "internalType": "bool",
                  "name": "frozen",
                  "type": "bool"
                },
                {
                  "internalType": "bool",
                  "name": "borrowingEnabled",
                  "type": "bool"
                },
                {
                  "internalType": "uint256",
                  "name": "reserveFactor",
                  "type": "uint256"
                }
              ],
              "internalType": "struct DataTypes.ReserveConfiguration",
              "name": "configuration",
              "type": "tuple"
            },
            {
              "components": [
                {
                  "internalType": "bool",
                  "name": "active",
                  "type": "bool"
                },
                {
                  "internalType": "bool",
                  "name": "collateralEnabled",
                  "type": "bool"
                },
                {
                  "internalType": "bool",
                  "name": "longEnabled",
                  "type": "bool"
                },
                {
                  "internalType": "bool",
                  "name": "shortEnabled",
                  "type": "bool"
                }
              ],
              "internalType": "struct DataTypes.ReservePositionConfiguration",
              "name": "positionConfiguration",
              "type": "tuple"
            },
            {
              "internalType": "uint128",
              "name": "liquidityIndex",
              "type": "uint128"
            },
            {
              "internalType": "uint128",
              "name": "borrowIndex",
              "type": "uint128"
            },
            {
              "internalType": "uint128",
              "name": "currentLiquidityRate",
              "type": "uint128"
            },
            {
              "internalType": "uint128",
              "name": "currentBorrowRate",
              "type": "uint128"
            },
            {
              "internalType": "uint40",
              "name": "lastUpdateTimestamp",
              "type": "uint40"
            },
            {
              "internalType": "address",
              "name": "kTokenAddress",
              "type": "address"
            },
            {
              "internalType": "address",
              "name": "dTokenAddress",
              "type": "address"
            },
            {
              "internalType": "address",
              "name": "interestRateStrategyAddress",
              "type": "address"
            },
            {
              "internalType": "uint256",
              "name": "id",
              "type": "uint256"
            }
          ],
          "internalType": "struct DataTypes.ReserveData[]",
          "name": "",
          "type": "tuple[]"
        }
      ],
      "stateMutability": "view",
      "type": "function"
    },
    {
      "inputs": [
        {
          "internalType": "uint256",
          "name": "id",
          "type": "uint256"
        }
      ],
      "name": "getAllReservesTokens",
      "outputs": [
        {
          "components": [
            {
              "internalType": "string",
              "name": "symbol",
              "type": "string"
            },
            {
              "internalType": "address",
              "name": "tokenAddress",
              "type": "address"
            }
          ],
          "internalType": "struct IDataProvider.TokenData[]",
          "name": "",
          "type": "tuple[]"
        }
      ],
      "stateMutability": "view",
      "type": "function"
    },
    {
      "inputs": [
        {
          "internalType": "uint256",
          "name": "id",
          "type": "uint256"
        },
        {
          "internalType": "address",
          "name": "asset",
          "type": "address"
        }
      ],
      "name": "getReserveConfigurationData",
      "outputs": [
        {
          "components": [
            {
              "internalType": "uint256",
              "name": "ltv",
              "type": "uint256"
            },
            {
              "internalType": "uint256",
              "name": "liquidationThreshold",
              "type": "uint256"
            },
            {
              "internalType": "uint256",
              "name": "liquidationBonus",
              "type": "uint256"
            },
            {
              "internalType": "uint8",
              "name": "decimals",
              "type": "uint8"
            },
            {
              "internalType": "bool",
              "name": "active",
              "type": "bool"
            },
            {
              "internalType": "bool",
              "name": "frozen",
              "type": "bool"
            },
            {
              "internalType": "bool",
              "name": "borrowingEnabled",
              "type": "bool"
            },
            {
              "internalType": "uint256",
              "name": "reserveFactor",
              "type": "uint256"
            }
          ],
          "internalType": "struct DataTypes.ReserveConfiguration",
          "name": "configuration",
          "type": "tuple"
        }
      ],
      "stateMutability": "view",
      "type": "function"
    },
    {
      "inputs": [
        {
          "internalType": "uint256",
          "name": "id",
          "type": "uint256"
        },
        {
          "internalType": "address",
          "name": "asset",
          "type": "address"
        }
      ],
      "name": "getReserveData",
      "outputs": [
        {
          "components": [
            {
              "components": [
                {
                  "internalType": "uint256",
                  "name": "ltv",
                  "type": "uint256"
                },
                {
                  "internalType": "uint256",
                  "name": "liquidationThreshold",
                  "type": "uint256"
                },
                {
                  "internalType": "uint256",
                  "name": "liquidationBonus",
                  "type": "uint256"
                },
                {
                  "internalType": "uint8",
                  "name": "decimals",
                  "type": "uint8"
                },
                {
                  "internalType": "bool",
                  "name": "active",
                  "type": "bool"
                },
                {
                  "internalType": "bool",
                  "name": "frozen",
                  "type": "bool"
                },
                {
                  "internalType": "bool",
                  "name": "borrowingEnabled",
                  "type": "bool"
                },
                {
                  "internalType": "uint256",
                  "name": "reserveFactor",
                  "type": "uint256"
                }
              ],
              "internalType": "struct DataTypes.ReserveConfiguration",
              "name": "configuration",
              "type": "tuple"
            },
            {
              "components": [
                {
                  "internalType": "bool",
                  "name": "active",
                  "type": "bool"
                },
                {
                  "internalType": "bool",
                  "name": "collateralEnabled",
                  "type": "bool"
                },
                {
                  "internalType": "bool",
                  "name": "longEnabled",
                  "type": "bool"
                },
                {
                  "internalType": "bool",
                  "name": "shortEnabled",
                  "type": "bool"
                }
              ],
              "internalType": "struct DataTypes.ReservePositionConfiguration",
              "name": "positionConfiguration",
              "type": "tuple"
            },
            {
              "internalType": "uint128",
              "name": "liquidityIndex",
              "type": "uint128"
            },
            {
              "internalType": "uint128",
              "name": "borrowIndex",
              "type": "uint128"
            },
            {
              "internalType": "uint128",
              "name": "currentLiquidityRate",
              "type": "uint128"
            },
            {
              "internalType": "uint128",
              "name": "currentBorrowRate",
              "type": "uint128"
            },
            {
              "internalType": "uint40",
              "name": "lastUpdateTimestamp",
              "type": "uint40"
            },
            {
              "internalType": "address",
              "name": "kTokenAddress",
              "type": "address"
            },
            {
              "internalType": "address",
              "name": "dTokenAddress",
              "type": "address"
            },
            {
              "internalType": "address",
              "name": "interestRateStrategyAddress",
              "type": "address"
            },
            {
              "internalType": "uint256",
              "name": "id",
              "type": "uint256"
            }
          ],
          "internalType": "struct DataTypes.ReserveData",
          "name": "",
          "type": "tuple"
        }
      ],
      "stateMutability": "view",
      "type": "function"
    },
    {
      "inputs": [
        {
          "internalType": "uint256",
          "name": "id",
          "type": "uint256"
        },
        {
          "internalType": "address",
          "name": "asset",
          "type": "address"
        }
      ],
      "name": "getReserveTokensAddresses",
      "outputs": [
        {
          "internalType": "address",
          "name": "aTokenAddress",
          "type": "address"
        },
        {
          "internalType": "address",
          "name": "variableDebtTokenAddress",
          "type": "address"
        }
      ],
      "stateMutability": "view",
      "type": "function"
    },
    {
      "inputs": [
        {
          "internalType": "uint256",
          "name": "id",
          "type": "uint256"
        },
        {
          "internalType": "address",
          "name": "trader",
          "type": "address"
        }
      ],
      "name": "getTraderPositions",
      "outputs": [
        {
          "components": [
            {
              "internalType": "address",
              "name": "traderAddress",
              "type": "address"
            },
            {
              "internalType": "address",
              "name": "collateralTokenAddress",
              "type": "address"
            },
            {
              "internalType": "address",
              "name": "shortTokenAddress",
              "type": "address"
            },
            {
              "internalType": "address",
              "name": "longTokenAddress",
              "type": "address"
            },
            {
              "internalType": "uint256",
              "name": "collateralAmount",
              "type": "uint256"
            },
            {
              "internalType": "uint256",
              "name": "shortAmount",
              "type": "uint256"
            },
            {
              "internalType": "uint256",
              "name": "longAmount",
              "type": "uint256"
            },
            {
              "internalType": "uint256",
              "name": "liquidationThreshold",
              "type": "uint256"
            },
            {
              "internalType": "uint256",
              "name": "id",
              "type": "uint256"
            },
            {
              "internalType": "bool",
              "name": "isOpen",
              "type": "bool"
            }
          ],
          "internalType": "struct DataTypes.TraderPosition[]",
          "name": "positions",
          "type": "tuple[]"
        }
      ],
      "stateMutability": "view",
      "type": "function"
    },
    {
      "inputs": [
        {
          "internalType": "uint256",
          "name": "id",
          "type": "uint256"
        },
        {
          "internalType": "address",
          "name": "asset",
          "type": "address"
        },
        {
          "internalType": "address",
          "name": "user",
          "type": "address"
        }
      ],
      "name": "getUserReserveData",
      "outputs": [
        {
          "internalType": "uint256",
          "name": "currentKTokenBalance",
          "type": "uint256"
        },
        {
          "internalType": "uint256",
          "name": "currentVariableDebt",
          "type": "uint256"
        },
        {
          "internalType": "uint256",
          "name": "scaledVariableDebt",
          "type": "uint256"
        },
        {
          "internalType": "uint256",
          "name": "liquidityRate",
          "type": "uint256"
        },
        {
          "internalType": "bool",
          "name": "usageAsCollateralEnabled",
          "type": "bool"
        }
      ],
      "stateMutability": "view",
      "type": "function"
    }
  ],
  "bytecode": "0x60a06040523480156200001157600080fd5b506040516200276838038062002768833981016040819052620000349162000046565b6001600160a01b031660805262000078565b6000602082840312156200005957600080fd5b81516001600160a01b03811681146200007157600080fd5b9392505050565b608051612688620000e06000396000818160d30152818161026601528181610373015281816104df0152818161087c015281816109e301528181610c7e01528181610e150152818161101b015281816113ec0152818161158001526116ec01526126886000f3fe608060405234801561001057600080fd5b50600436106100c95760003560e01c806399f283d711610081578063e30de0611161005b578063e30de06114610224578063fd109d9514610244578063fe65acfe1461026457600080fd5b806399f283d714610192578063b21f3e18146101a7578063dd46b47c146101e457600080fd5b8063352b94d9116100b2578063352b94d91461013f5780635a591f591461015f57806384d0a4cb1461017f57600080fd5b80630542975c146100ce5780631da350811461011f575b600080fd5b6100f57f000000000000000000000000000000000000000000000000000000000000000081565b60405173ffffffffffffffffffffffffffffffffffffffff90911681526020015b60405180910390f35b61013261012d366004611a25565b61028a565b6040516101169190611b91565b61015261014d366004611ba0565b610495565b6040516101169190611c33565b61017261016d366004611a25565b610809565b6040516101169190611cdd565b61015261018d366004611ba0565b610999565b61019a610c78565b6040516101169190611d3e565b6101ba6101b5366004611df2565b611010565b6040805195865260208601949094529284019190915260608301521515608082015260a001610116565b6101f76101f2366004611a25565b6113e5565b6040805173ffffffffffffffffffffffffffffffffffffffff938416815292909116602083015201610116565b610237610232366004611a25565b611536565b6040516101169190611e34565b610257610252366004611ba0565b6116a2565b6040516101169190611ef8565b7f00000000000000000000000000000000000000000000000000000000000000006100f5565b60408051610260810182526000610160820181815261018083018290526101a083018290526101c083018290526101e0830182905261020083018290526102208301829052610240830182905282528251608080820185528282526020808301849052828601849052606080840185905290850192909252938301829052820181905291810182905260a0810182905260c0810182905260e08101829052610100810182905261012081018290526101408101919091526040517f1c1951f4000000000000000000000000000000000000000000000000000000008152600481018490526000907f000000000000000000000000000000000000000000000000000000000000000073ffffffffffffffffffffffffffffffffffffffff1690631c1951f4906024016040805180830381865afa1580156103ce573d6000803e3d6000fd5b505050506040513d601f19601f820116820180604052508101906103f29190611f67565b506040517f35ea6a7500000000000000000000000000000000000000000000000000000000815273ffffffffffffffffffffffffffffffffffffffff85811660048301529192506000918316906335ea6a75906024016102a060405180830381865afa158015610466573d6000803e3d6000fd5b505050506040513d601f19601f8201168201806040525081019061048a91906121d2565b925050505b92915050565b6040517f1c1951f40000000000000000000000000000000000000000000000000000000081526004810182905260609060009073ffffffffffffffffffffffffffffffffffffffff7f00000000000000000000000000000000000000000000000000000000000000001690631c1951f4906024016040805180830381865afa158015610525573d6000803e3d6000fd5b505050506040513d601f19601f820116820180604052508101906105499190611f67565b509050600081905060008173ffffffffffffffffffffffffffffffffffffffff1663d1946dbc6040518163ffffffff1660e01b8152600401600060405180830381865afa15801561059e573d6000803e3d6000fd5b505050506040513d6000823e601f3d9081017fffffffffffffffffffffffffffffffffffffffffffffffffffffffffffffffe01682016040526105e491908101906122d5565b90506000815167ffffffffffffffff81111561060257610602611f9c565b60405190808252806020026020018201604052801561064857816020015b6040805180820190915260608152600060208201528152602001906001900390816106205790505b50905060005b82518110156107ff5760008473ffffffffffffffffffffffffffffffffffffffff166335ea6a7585848151811061068757610687612374565b60200260200101516040518263ffffffff1660e01b81526004016106c7919073ffffffffffffffffffffffffffffffffffffffff91909116815260200190565b6102a060405180830381865afa1580156106e5573d6000803e3d6000fd5b505050506040513d601f19601f8201168201806040525081019061070991906121d2565b905060405180604001604052808260e0015173ffffffffffffffffffffffffffffffffffffffff166395d89b416040518163ffffffff1660e01b8152600401600060405180830381865afa158015610765573d6000803e3d6000fd5b505050506040513d6000823e601f3d9081017fffffffffffffffffffffffffffffffffffffffffffffffffffffffffffffffe01682016040526107ab91908101906123a3565b81526020018260e0015173ffffffffffffffffffffffffffffffffffffffff168152508383815181106107e0576107e0612374565b60200260200101819052505080806107f790612455565b91505061064e565b5095945050505050565b6040805161010081018252600080825260208201819052918101829052606081018290526080810182905260a0810182905260c0810182905260e08101919091526040517f1c1951f4000000000000000000000000000000000000000000000000000000008152600481018490526000907f000000000000000000000000000000000000000000000000000000000000000073ffffffffffffffffffffffffffffffffffffffff1690631c1951f4906024016040805180830381865afa1580156108d7573d6000803e3d6000fd5b505050506040513d601f19601f820116820180604052508101906108fb9190611f67565b506040517fc44b11f700000000000000000000000000000000000000000000000000000000815273ffffffffffffffffffffffffffffffffffffffff85811660048301529192509082169063c44b11f79060240161010060405180830381865afa15801561096d573d6000803e3d6000fd5b505050506040513d601f19601f8201168201806040525081019061099191906124b4565b949350505050565b6040517f1c1951f40000000000000000000000000000000000000000000000000000000081526004810182905260609060009073ffffffffffffffffffffffffffffffffffffffff7f00000000000000000000000000000000000000000000000000000000000000001690631c1951f4906024016040805180830381865afa158015610a29573d6000803e3d6000fd5b505050506040513d601f19601f82011682018060405250810190610a4d9190611f67565b509050600081905060008173ffffffffffffffffffffffffffffffffffffffff1663d1946dbc6040518163ffffffff1660e01b8152600401600060405180830381865afa158015610aa2573d6000803e3d6000fd5b505050506040513d6000823e601f3d9081017fffffffffffffffffffffffffffffffffffffffffffffffffffffffffffffffe0168201604052610ae891908101906122d5565b90506000815167ffffffffffffffff811115610b0657610b06611f9c565b604051908082528060200260200182016040528015610b4c57816020015b604080518082019091526060815260006020820152815260200190600190039081610b245790505b50905060005b82518110156107ff576040518060400160405280848381518110610b7857610b78612374565b602002602001015173ffffffffffffffffffffffffffffffffffffffff166395d89b416040518163ffffffff1660e01b8152600401600060405180830381865afa158015610bca573d6000803e3d6000fd5b505050506040513d6000823e601f3d9081017fffffffffffffffffffffffffffffffffffffffffffffffffffffffffffffffe0168201604052610c1091908101906123a3565b8152602001848381518110610c2757610c27612374565b602002602001015173ffffffffffffffffffffffffffffffffffffffff16815250828281518110610c5a57610c5a612374565b60200260200101819052508080610c7090612455565b915050610b52565b606060007f000000000000000000000000000000000000000000000000000000000000000073ffffffffffffffffffffffffffffffffffffffff1663d88ff1f46040518163ffffffff1660e01b8152600401600060405180830381865afa158015610ce7573d6000803e3d6000fd5b505050506040513d6000823e601f3d9081017fffffffffffffffffffffffffffffffffffffffffffffffffffffffffffffffe0168201604052610d2d91908101906122d5565b90506000815167ffffffffffffffff811115610d4b57610d4b611f9c565b604051908082528060200260200182016040528015610dbf57816020015b610dac6040518060800160405280600073ffffffffffffffffffffffffffffffffffffffff16815260200160008152602001606081526020016000151581525090565b815260200190600190039081610d695790505b50905060005b8251811015611009576000838281518110610de257610de2612374565b6020026020010151905060405180608001604052808273ffffffffffffffffffffffffffffffffffffffff1681526020017f000000000000000000000000000000000000000000000000000000000000000073ffffffffffffffffffffffffffffffffffffffff1663d459377d846040518263ffffffff1660e01b8152600401610e88919073ffffffffffffffffffffffffffffffffffffffff91909116815260200190565b602060405180830381865afa158015610ea5573d6000803e3d6000fd5b505050506040513d601f19601f82011682018060405250810190610ec991906124d8565b81526020018273ffffffffffffffffffffffffffffffffffffffff166306fdde036040518163ffffffff1660e01b8152600401600060405180830381865afa158015610f19573d6000803e3d6000fd5b505050506040513d6000823e601f3d9081017fffffffffffffffffffffffffffffffffffffffffffffffffffffffffffffffe0168201604052610f5f91908101906123a3565b81526020018273ffffffffffffffffffffffffffffffffffffffff16635c975abb6040518163ffffffff1660e01b8152600401602060405180830381865afa158015610faf573d6000803e3d6000fd5b505050506040513d601f19601f82011682018060405250810190610fd391906124f1565b1515815250838381518110610fea57610fea612374565b602002602001018190525050808061100190612455565b915050610dc5565b5092915050565b6000806000806000807f000000000000000000000000000000000000000000000000000000000000000073ffffffffffffffffffffffffffffffffffffffff16631c1951f48a6040518263ffffffff1660e01b815260040161107491815260200190565b6040805180830381865afa158015611090573d6000803e3d6000fd5b505050506040513d601f19601f820116820180604052508101906110b49190611f67565b506040517f35ea6a7500000000000000000000000000000000000000000000000000000000815273ffffffffffffffffffffffffffffffffffffffff8a811660048301529192506000918316906335ea6a75906024016102a060405180830381865afa158015611128573d6000803e3d6000fd5b505050506040513d601f19601f8201168201806040525081019061114c91906121d2565b6101408101516040517f9a62d6b700000000000000000000000000000000000000000000000000000000815273ffffffffffffffffffffffffffffffffffffffff8b81166004830152602482019290925291925060009190841690639a62d6b7906044016040805180830381865afa1580156111cc573d6000803e3d6000fd5b505050506040513d601f19601f820116820180604052508101906111f0919061250c565b5060e08301516040517f70a0823100000000000000000000000000000000000000000000000000000000815273ffffffffffffffffffffffffffffffffffffffff8c811660048301529293509116906370a0823190602401602060405180830381865afa158015611265573d6000803e3d6000fd5b505050506040513d601f19601f8201168201806040525081019061128991906124d8565b6101008301516040517f70a0823100000000000000000000000000000000000000000000000000000000815273ffffffffffffffffffffffffffffffffffffffff8c81166004830152929a509116906370a0823190602401602060405180830381865afa1580156112fe573d6000803e3d6000fd5b505050506040513d601f19601f8201168201806040525081019061132291906124d8565b6101008301516040517f1da24f3e00000000000000000000000000000000000000000000000000000000815273ffffffffffffffffffffffffffffffffffffffff8c81166004830152929950911690631da24f3e90602401602060405180830381865afa158015611397573d6000803e3d6000fd5b505050506040513d601f19601f820116820180604052508101906113bb91906124d8565b608090920151979b969a509098506fffffffffffffffffffffffffffffffff909616965050505050565b60008060007f000000000000000000000000000000000000000000000000000000000000000073ffffffffffffffffffffffffffffffffffffffff16631c1951f4866040518263ffffffff1660e01b815260040161144591815260200190565b6040805180830381865afa158015611461573d6000803e3d6000fd5b505050506040513d601f19601f820116820180604052508101906114859190611f67565b506040517f35ea6a7500000000000000000000000000000000000000000000000000000000815273ffffffffffffffffffffffffffffffffffffffff86811660048301529192506000918316906335ea6a75906024016102a060405180830381865afa1580156114f9573d6000803e3d6000fd5b505050506040513d601f19601f8201168201806040525081019061151d91906121d2565b60e0810151610100909101519097909650945050505050565b6040517f1c1951f40000000000000000000000000000000000000000000000000000000081526004810183905260609060009073ffffffffffffffffffffffffffffffffffffffff7f00000000000000000000000000000000000000000000000000000000000000001690631c1951f4906024016040805180830381865afa1580156115c6573d6000803e3d6000fd5b505050506040513d601f19601f820116820180604052508101906115ea9190611f67565b506040517f5fbbb2ff00000000000000000000000000000000000000000000000000000000815273ffffffffffffffffffffffffffffffffffffffff85811660048301529192508291821690635fbbb2ff90602401600060405180830381865afa15801561165c573d6000803e3d6000fd5b505050506040513d6000823e601f3d9081017fffffffffffffffffffffffffffffffffffffffffffffffffffffffffffffffe016820160405261048a9190810190612528565b6040517f1c1951f40000000000000000000000000000000000000000000000000000000081526004810182905260609060009073ffffffffffffffffffffffffffffffffffffffff7f00000000000000000000000000000000000000000000000000000000000000001690631c1951f4906024016040805180830381865afa158015611732573d6000803e3d6000fd5b505050506040513d601f19601f820116820180604052508101906117569190611f67565b509050600081905060008173ffffffffffffffffffffffffffffffffffffffff1663d1946dbc6040518163ffffffff1660e01b8152600401600060405180830381865afa1580156117ab573d6000803e3d6000fd5b505050506040513d6000823e601f3d9081017fffffffffffffffffffffffffffffffffffffffffffffffffffffffffffffffe01682016040526117f191908101906122d5565b90506000815167ffffffffffffffff81111561180f5761180f611f9c565b60405190808252806020026020018201604052801561191157816020015b60408051610260810182526000610160820181815261018083018290526101a083018290526101c083018290526101e0830182905261020083018290526102208301829052610240830182905282528251608080820185528282526020808301849052828601849052606080840185905281860193909352948401839052908301829052820181905260a0820181905260c0820181905260e082018190526101008201819052610120820181905261014082015282527fffffffffffffffffffffffffffffffffffffffffffffffffffffffffffffffff90920191018161182d5790505b50905060005b82518110156107ff578373ffffffffffffffffffffffffffffffffffffffff166335ea6a7584838151811061194e5761194e612374565b60200260200101516040518263ffffffff1660e01b815260040161198e919073ffffffffffffffffffffffffffffffffffffffff91909116815260200190565b6102a060405180830381865afa1580156119ac573d6000803e3d6000fd5b505050506040513d601f19601f820116820180604052508101906119d091906121d2565b8282815181106119e2576119e2612374565b602002602001018190525080806119f890612455565b915050611917565b73ffffffffffffffffffffffffffffffffffffffff81168114611a2257600080fd5b50565b60008060408385031215611a3857600080fd5b823591506020830135611a4a81611a00565b809150509250929050565b611ab282825180518252602081015160208301526040810151604083015260ff606082015116606083015260808101511515608083015260a0810151151560a083015260c0810151151560c083015260e081015160e08301525050565b6020810151610100611aef818501838051151582526020810151151560208301526040810151151560408301526060810151151560608301525050565b60408301516fffffffffffffffffffffffffffffffff908116610180860152606084015181166101a0860152608084015181166101c086015260a0840151166101e085015260c083015164ffffffffff1661020085015260e083015173ffffffffffffffffffffffffffffffffffffffff9081166102208601529083015181166102408501526101208301511661026084015250610140015161028090910152565b6102a0810161048f8284611a55565b600060208284031215611bb257600080fd5b5035919050565b60005b83811015611bd4578181015183820152602001611bbc565b83811115611be3576000848401525b50505050565b60008151808452611c01816020860160208601611bb9565b601f017fffffffffffffffffffffffffffffffffffffffffffffffffffffffffffffffe0169290920160200192915050565b60006020808301818452808551808352604092508286019150828160051b87010184880160005b83811015611ccf577fffffffffffffffffffffffffffffffffffffffffffffffffffffffffffffffc089840301855281518051878552611c9c88860182611be9565b9189015173ffffffffffffffffffffffffffffffffffffffff169489019490945294870194925090860190600101611c5a565b509098975050505050505050565b610100810161048f828480518252602081015160208301526040810151604083015260ff606082015116606083015260808101511515608083015260a0810151151560a083015260c0810151151560c083015260e081015160e08301525050565b60006020808301818452808551808352604092508286019150828160051b87010184880160005b83811015611ccf577fffffffffffffffffffffffffffffffffffffffffffffffffffffffffffffffc08984030185528151608073ffffffffffffffffffffffffffffffffffffffff82511685528882015189860152878201518189870152611dcf82870182611be9565b606093840151151596909301959095525094870194925090860190600101611d65565b600080600060608486031215611e0757600080fd5b833592506020840135611e1981611a00565b91506040840135611e2981611a00565b809150509250925092565b602080825282518282018190526000919060409081850190868401855b82811015611eeb578151805173ffffffffffffffffffffffffffffffffffffffff90811686528782015181168887015286820151811687870152606080830151909116908601526080808201519086015260a0808201519086015260c0808201519086015260e080820151908601526101008082015190860152610120908101511515908501526101409093019290850190600101611e51565b5091979650505050505050565b6020808252825182820181905260009190848201906040850190845b81811015611f3b57611f27838551611a55565b928401926102a09290920191600101611f14565b50909695505050505050565b8051611f5281611a00565b919050565b80518015158114611f5257600080fd5b60008060408385031215611f7a57600080fd5b8251611f8581611a00565b9150611f9360208401611f57565b90509250929050565b7f4e487b7100000000000000000000000000000000000000000000000000000000600052604160045260246000fd5b604051610100810167ffffffffffffffff81118282101715611fef57611fef611f9c565b60405290565b604051610160810167ffffffffffffffff81118282101715611fef57611fef611f9c565b604051610140810167ffffffffffffffff81118282101715611fef57611fef611f9c565b604051601f82017fffffffffffffffffffffffffffffffffffffffffffffffffffffffffffffffe016810167ffffffffffffffff8111828210171561208457612084611f9c565b604052919050565b6000610100828403121561209f57600080fd5b6120a7611fcb565b9050815181526020820151602082015260408201516040820152606082015160ff811681146120d557600080fd5b60608201526120e660808301611f57565b60808201526120f760a08301611f57565b60a082015261210860c08301611f57565b60c082015260e082015160e082015292915050565b60006080828403121561212f57600080fd5b6040516080810181811067ffffffffffffffff8211171561215257612152611f9c565b60405290508061216183611f57565b815261216f60208401611f57565b602082015261218060408401611f57565b604082015261219160608401611f57565b60608201525092915050565b80516fffffffffffffffffffffffffffffffff81168114611f5257600080fd5b805164ffffffffff81168114611f5257600080fd5b60006102a082840312156121e557600080fd5b6121ed611ff5565b6121f7848461208c565b81526101006122088582860161211d565b602083015261221a610180850161219d565b604083015261222c6101a0850161219d565b606083015261223e6101c0850161219d565b60808301526122506101e0850161219d565b60a083015261226261020085016121bd565b60c08301526122746102208501611f47565b60e08301526122866102408501611f47565b908201526122976102608401611f47565b610120820152610280929092015161014083015250919050565b600067ffffffffffffffff8211156122cb576122cb611f9c565b5060051b60200190565b600060208083850312156122e857600080fd5b825167ffffffffffffffff8111156122ff57600080fd5b8301601f8101851361231057600080fd5b805161232361231e826122b1565b61203d565b81815260059190911b8201830190838101908783111561234257600080fd5b928401925b8284101561236957835161235a81611a00565b82529284019290840190612347565b979650505050505050565b7f4e487b7100000000000000000000000000000000000000000000000000000000600052603260045260246000fd5b6000602082840312156123b557600080fd5b815167ffffffffffffffff808211156123cd57600080fd5b818401915084601f8301126123e157600080fd5b8151818111156123f3576123f3611f9c565b61242460207fffffffffffffffffffffffffffffffffffffffffffffffffffffffffffffffe0601f8401160161203d565b915080825285602082850101111561243b57600080fd5b61244c816020840160208601611bb9565b50949350505050565b60007fffffffffffffffffffffffffffffffffffffffffffffffffffffffffffffffff82036124ad577f4e487b7100000000000000000000000000000000000000000000000000000000600052601160045260246000fd5b5060010190565b600061010082840312156124c757600080fd5b6124d1838361208c565b9392505050565b6000602082840312156124ea57600080fd5b5051919050565b60006020828403121561250357600080fd5b6124d182611f57565b6000806040838503121561251f57600080fd5b611f8583611f57565b6000602080838503121561253b57600080fd5b825167ffffffffffffffff81111561255257600080fd5b8301601f8101851361256357600080fd5b805161257161231e826122b1565b818152610140918202830184019184820191908884111561259157600080fd5b938501935b838510156126465780858a0312156125ae5760008081fd5b6125b6612019565b6125bf86611f47565b81526125cc878701611f47565b8782015260406125dd818801611f47565b9082015260606125ee878201611f47565b908201526080868101519082015260a0808701519082015260c0808701519082015260e080870151908201526101008087015190820152610120612633818801611f57565b9082015283529384019391850191612596565b5097965050505050505056fea26469706673582212208294a1ee71c6e5b0a55eb11b80e10914ebb4dacaf16fd6e864752f7c74c920d664736f6c634300080e0033",
  "linkReferences": {},
  "deployedLinkReferences": {}
}