{
  "_format": "hh-sol-artifact-1",
  "contractName": "MockERC20",
  "sourceName": "contracts/Mock/MockERC20.sol",
  "abi": [
    {
      "inputs": [
        {
          "internalType": "string",
          "name": "name_",
          "type": "string"
        },
        {
          "internalType": "string",
          "name": "symbol_",
          "type": "string"
        },
        {
          "internalType": "uint8",
          "name": "decimals_",
          "type": "uint8"
        }
      ],
      "stateMutability": "nonpayable",
      "type": "constructor"
    },
    {
      "anonymous": false,
      "inputs": [
        {
          "indexed": true,
          "internalType": "address",
          "name": "owner",
          "type": "address"
        },
        {
          "indexed": true,
          "internalType": "address",
          "name": "spender",
          "type": "address"
        },
        {
          "indexed": false,
          "internalType": "uint256",
          "name": "value",
          "type": "uint256"
        }
      ],
      "name": "Approval",
      "type": "event"
    },
    {
      "anonymous": false,
      "inputs": [
        {
          "indexed": true,
          "internalType": "address",
          "name": "from",
          "type": "address"
        },
        {
          "indexed": true,
          "internalType": "address",
          "name": "to",
          "type": "address"
        },
        {
          "indexed": false,
          "internalType": "uint256",
          "name": "value",
          "type": "uint256"
        }
      ],
      "name": "Transfer",
      "type": "event"
    },
    {
      "inputs": [
        {
          "internalType": "address",
          "name": "owner",
          "type": "address"
        },
        {
          "internalType": "address",
          "name": "spender",
          "type": "address"
        }
      ],
      "name": "allowance",
      "outputs": [
        {
          "internalType": "uint256",
          "name": "",
          "type": "uint256"
        }
      ],
      "stateMutability": "view",
      "type": "function"
    },
    {
      "inputs": [
        {
          "internalType": "address",
          "name": "spender",
          "type": "address"
        },
        {
          "internalType": "uint256",
          "name": "amount",
          "type": "uint256"
        }
      ],
      "name": "approve",
      "outputs": [
        {
          "internalType": "bool",
          "name": "",
          "type": "bool"
        }
      ],
      "stateMutability": "nonpayable",
      "type": "function"
    },
    {
      "inputs": [
        {
          "internalType": "address",
          "name": "account",
          "type": "address"
        }
      ],
      "name": "balanceOf",
      "outputs": [
        {
          "internalType": "uint256",
          "name": "",
          "type": "uint256"
        }
      ],
      "stateMutability": "view",
      "type": "function"
    },
    {
      "inputs": [],
      "name": "decimals",
      "outputs": [
        {
          "internalType": "uint8",
          "name": "",
          "type": "uint8"
        }
      ],
      "stateMutability": "view",
      "type": "function"
    },
    {
      "inputs": [
        {
          "internalType": "address",
          "name": "spender",
          "type": "address"
        },
        {
          "internalType": "uint256",
          "name": "subtractedValue",
          "type": "uint256"
        }
      ],
      "name": "decreaseAllowance",
      "outputs": [
        {
          "internalType": "bool",
          "name": "",
          "type": "bool"
        }
      ],
      "stateMutability": "nonpayable",
      "type": "function"
    },
    {
      "inputs": [
        {
          "internalType": "address",
          "name": "spender",
          "type": "address"
        },
        {
          "internalType": "uint256",
          "name": "amount",
          "type": "uint256"
        }
      ],
      "name": "faucet",
      "outputs": [],
      "stateMutability": "nonpayable",
      "type": "function"
    },
    {
      "inputs": [
        {
          "internalType": "address",
          "name": "spender",
          "type": "address"
        },
        {
          "internalType": "uint256",
          "name": "addedValue",
          "type": "uint256"
        }
      ],
      "name": "increaseAllowance",
      "outputs": [
        {
          "internalType": "bool",
          "name": "",
          "type": "bool"
        }
      ],
      "stateMutability": "nonpayable",
      "type": "function"
    },
    {
      "inputs": [
        {
          "internalType": "address",
          "name": "account",
          "type": "address"
        },
        {
          "internalType": "uint256",
          "name": "amount",
          "type": "uint256"
        }
      ],
      "name": "mint",
      "outputs": [],
      "stateMutability": "nonpayable",
      "type": "function"
    },
    {
      "inputs": [],
      "name": "name",
      "outputs": [
        {
          "internalType": "string",
          "name": "",
          "type": "string"
        }
      ],
      "stateMutability": "view",
      "type": "function"
    },
    {
      "inputs": [],
      "name": "symbol",
      "outputs": [
        {
          "internalType": "string",
          "name": "",
          "type": "string"
        }
      ],
      "stateMutability": "view",
      "type": "function"
    },
    {
      "inputs": [],
      "name": "totalSupply",
      "outputs": [
        {
          "internalType": "uint256",
          "name": "",
          "type": "uint256"
        }
      ],
      "stateMutability": "view",
      "type": "function"
    },
    {
      "inputs": [
        {
          "internalType": "address",
          "name": "recipient",
          "type": "address"
        },
        {
          "internalType": "uint256",
          "name": "amount",
          "type": "uint256"
        }
      ],
      "name": "transfer",
      "outputs": [
        {
          "internalType": "bool",
          "name": "",
          "type": "bool"
        }
      ],
      "stateMutability": "nonpayable",
      "type": "function"
    },
    {
      "inputs": [
        {
          "internalType": "address",
          "name": "sender",
          "type": "address"
        },
        {
          "internalType": "address",
          "name": "recipient",
          "type": "address"
        },
        {
          "internalType": "uint256",
          "name": "amount",
          "type": "uint256"
        }
      ],
      "name": "transferFrom",
      "outputs": [
        {
          "internalType": "bool",
          "name": "",
          "type": "bool"
        }
      ],
      "stateMutability": "nonpayable",
      "type": "function"
    }
  ],
  "bytecode": "0x60806040523480156200001157600080fd5b50604051620010b1380380620010b18339810160408190526200003491620002eb565b82516200004990600390602086019062000178565b5081516200005f90600490602085019062000178565b506005805460ff191660ff831617905562000086336a084595161401484a0000006200008f565b505050620003d3565b6001600160a01b038216620000ea5760405162461bcd60e51b815260206004820152601f60248201527f45524332303a206d696e7420746f20746865207a65726f206164647265737300604482015260640160405180910390fd5b80600254620000fa919062000370565b6002556001600160a01b0382166000908152602081905260409020546200012390829062000370565b6001600160a01b038316600081815260208181526040808320949094559251848152919290917fddf252ad1be2c89b69c2b068fc378daa952ba7f163c4a11628f55a4df523b3ef910160405180910390a35050565b828054620001869062000397565b90600052602060002090601f016020900481019282620001aa5760008555620001f5565b82601f10620001c557805160ff1916838001178555620001f5565b82800160010185558215620001f5579182015b82811115620001f5578251825591602001919060010190620001d8565b506200020392915062000207565b5090565b5b8082111562000203576000815560010162000208565b634e487b7160e01b600052604160045260246000fd5b600082601f8301126200024657600080fd5b81516001600160401b03808211156200026357620002636200021e565b604051601f8301601f19908116603f011681019082821181831017156200028e576200028e6200021e565b81604052838152602092508683858801011115620002ab57600080fd5b600091505b83821015620002cf5785820183015181830184015290820190620002b0565b83821115620002e15760008385830101525b9695505050505050565b6000806000606084860312156200030157600080fd5b83516001600160401b03808211156200031957600080fd5b620003278783880162000234565b945060208601519150808211156200033e57600080fd5b506200034d8682870162000234565b925050604084015160ff811681146200036557600080fd5b809150509250925092565b600082198211156200039257634e487b7160e01b600052601160045260246000fd5b500190565b600181811c90821680620003ac57607f821691505b602082108103620003cd57634e487b7160e01b600052602260045260246000fd5b50919050565b610cce80620003e36000396000f3fe608060405234801561001057600080fd5b50600436106100df5760003560e01c806340c10f191161008c57806395d89b411161006657806395d89b41146101d0578063a457c2d7146101d8578063a9059cbb146101eb578063dd62ed3e146101fe57600080fd5b806340c10f191461017257806370a08231146101875780637b56c2b2146101bd57600080fd5b806323b872dd116100bd57806323b872dd14610137578063313ce5671461014a578063395093511461015f57600080fd5b806306fdde03146100e4578063095ea7b31461010257806318160ddd14610125575b600080fd5b6100ec610244565b6040516100f99190610924565b60405180910390f35b6101156101103660046109c0565b6102d6565b60405190151581526020016100f9565b6002545b6040519081526020016100f9565b6101156101453660046109ea565b6102ed565b60055460405160ff90911681526020016100f9565b61011561016d3660046109c0565b61034c565b6101856101803660046109c0565b610390565b005b610129610195366004610a26565b73ffffffffffffffffffffffffffffffffffffffff1660009081526020819052604090205490565b6101856101cb3660046109c0565b61039e565b6100ec6103d8565b6101156101e63660046109c0565b6103e7565b6101156101f93660046109c0565b61042b565b61012961020c366004610a48565b73ffffffffffffffffffffffffffffffffffffffff918216600090815260016020908152604080832093909416825291909152205490565b60606003805461025390610a7b565b80601f016020809104026020016040519081016040528092919081815260200182805461027f90610a7b565b80156102cc5780601f106102a1576101008083540402835291602001916102cc565b820191906000526020600020905b8154815290600101906020018083116102af57829003601f168201915b5050505050905090565b60006102e3338484610438565b5060015b92915050565b60006102fa8484846105f1565b73ffffffffffffffffffffffffffffffffffffffff841660009081526001602090815260408083203380855292529091205461034291869161033d908690610afd565b610438565b5060019392505050565b33600081815260016020908152604080832073ffffffffffffffffffffffffffffffffffffffff8716845290915281205490916102e391859061033d908690610b14565b61039a8282610803565b5050565b6005546000906103b29060ff16600a610c4c565b6103bc9083610c5b565b90506103c83382610803565b6103d283826102d6565b50505050565b60606004805461025390610a7b565b33600081815260016020908152604080832073ffffffffffffffffffffffffffffffffffffffff8716845290915281205490916102e391859061033d908690610afd565b60006102e33384846105f1565b73ffffffffffffffffffffffffffffffffffffffff83166104df576040517f08c379a0000000000000000000000000000000000000000000000000000000008152602060048201526024808201527f45524332303a20617070726f76652066726f6d20746865207a65726f2061646460448201527f726573730000000000000000000000000000000000000000000000000000000060648201526084015b60405180910390fd5b73ffffffffffffffffffffffffffffffffffffffff8216610582576040517f08c379a000000000000000000000000000000000000000000000000000000000815260206004820152602260248201527f45524332303a20617070726f766520746f20746865207a65726f20616464726560448201527f737300000000000000000000000000000000000000000000000000000000000060648201526084016104d6565b73ffffffffffffffffffffffffffffffffffffffff83811660008181526001602090815260408083209487168084529482529182902085905590518481527f8c5be1e5ebec7d5bd14f71427d1e84f3dd0314c0f7b2291e5b200ac8c7c3b92591015b60405180910390a3505050565b73ffffffffffffffffffffffffffffffffffffffff8316610694576040517f08c379a000000000000000000000000000000000000000000000000000000000815260206004820152602560248201527f45524332303a207472616e736665722066726f6d20746865207a65726f20616460448201527f647265737300000000000000000000000000000000000000000000000000000060648201526084016104d6565b73ffffffffffffffffffffffffffffffffffffffff8216610737576040517f08c379a000000000000000000000000000000000000000000000000000000000815260206004820152602360248201527f45524332303a207472616e7366657220746f20746865207a65726f206164647260448201527f657373000000000000000000000000000000000000000000000000000000000060648201526084016104d6565b73ffffffffffffffffffffffffffffffffffffffff8316600090815260208190526040902054610768908290610afd565b73ffffffffffffffffffffffffffffffffffffffff80851660009081526020819052604080822093909355908416815220546107a5908290610b14565b73ffffffffffffffffffffffffffffffffffffffff8381166000818152602081815260409182902094909455518481529092918616917fddf252ad1be2c89b69c2b068fc378daa952ba7f163c4a11628f55a4df523b3ef91016105e4565b73ffffffffffffffffffffffffffffffffffffffff8216610880576040517f08c379a000000000000000000000000000000000000000000000000000000000815260206004820152601f60248201527f45524332303a206d696e7420746f20746865207a65726f20616464726573730060448201526064016104d6565b8060025461088e9190610b14565b60025573ffffffffffffffffffffffffffffffffffffffff82166000908152602081905260409020546108c2908290610b14565b73ffffffffffffffffffffffffffffffffffffffff8316600081815260208181526040808320949094559251848152919290917fddf252ad1be2c89b69c2b068fc378daa952ba7f163c4a11628f55a4df523b3ef910160405180910390a35050565b600060208083528351808285015260005b8181101561095157858101830151858201604001528201610935565b81811115610963576000604083870101525b50601f017fffffffffffffffffffffffffffffffffffffffffffffffffffffffffffffffe016929092016040019392505050565b803573ffffffffffffffffffffffffffffffffffffffff811681146109bb57600080fd5b919050565b600080604083850312156109d357600080fd5b6109dc83610997565b946020939093013593505050565b6000806000606084860312156109ff57600080fd5b610a0884610997565b9250610a1660208501610997565b9150604084013590509250925092565b600060208284031215610a3857600080fd5b610a4182610997565b9392505050565b60008060408385031215610a5b57600080fd5b610a6483610997565b9150610a7260208401610997565b90509250929050565b600181811c90821680610a8f57607f821691505b602082108103610ac8577f4e487b7100000000000000000000000000000000000000000000000000000000600052602260045260246000fd5b50919050565b7f4e487b7100000000000000000000000000000000000000000000000000000000600052601160045260246000fd5b600082821015610b0f57610b0f610ace565b500390565b60008219821115610b2757610b27610ace565b500190565b600181815b80851115610b8557817fffffffffffffffffffffffffffffffffffffffffffffffffffffffffffffffff04821115610b6b57610b6b610ace565b80851615610b7857918102915b93841c9390800290610b31565b509250929050565b600082610b9c575060016102e7565b81610ba9575060006102e7565b8160018114610bbf5760028114610bc957610be5565b60019150506102e7565b60ff841115610bda57610bda610ace565b50506001821b6102e7565b5060208310610133831016604e8410600b8410161715610c08575081810a6102e7565b610c128383610b2c565b807fffffffffffffffffffffffffffffffffffffffffffffffffffffffffffffffff04821115610c4457610c44610ace565b029392505050565b6000610a4160ff841683610b8d565b6000817fffffffffffffffffffffffffffffffffffffffffffffffffffffffffffffffff0483118215151615610c9357610c93610ace565b50029056fea2646970667358221220e34be06b743a5e9097f554dc2fd9ee34bd58190e7c7d531025ca2e3d212a270b64736f6c634300080e0033",
  "linkReferences": {},
  "deployedLinkReferences": {}
}