{
  "_format": "hh-sol-artifact-1",
  "contractName": "LendingPool",
  "sourceName": "contracts/Pool/LendingPool.sol",
  "abi": [
    {
      "inputs": [
        {
          "internalType": "contract ILendingPoolAddressesProvider",
          "name": "provider",
          "type": "address"
        },
        {
          "internalType": "string",
          "name": "poolName",
          "type": "string"
        }
      ],
      "stateMutability": "nonpayable",
      "type": "constructor"
    },
    {
      "anonymous": false,
      "inputs": [
        {
          "indexed": true,
          "internalType": "address",
          "name": "reserve",
          "type": "address"
        },
        {
          "indexed": false,
          "internalType": "address",
          "name": "user",
          "type": "address"
        },
        {
          "indexed": true,
          "internalType": "address",
          "name": "onBehalfOf",
          "type": "address"
        },
        {
          "indexed": false,
          "internalType": "uint256",
          "name": "amount",
          "type": "uint256"
        },
        {
          "indexed": false,
          "internalType": "uint256",
          "name": "borrowRateMode",
          "type": "uint256"
        },
        {
          "indexed": false,
          "internalType": "uint256",
          "name": "borrowRate",
          "type": "uint256"
        }
      ],
      "name": "Borrow",
      "type": "event"
    },
    {
      "anonymous": false,
      "inputs": [
        {
          "indexed": false,
          "internalType": "uint256",
          "name": "id",
          "type": "uint256"
        },
        {
          "indexed": false,
          "internalType": "address",
          "name": "traderAddress",
          "type": "address"
        },
        {
          "indexed": false,
          "internalType": "address",
          "name": "collateralTokenAddress",
          "type": "address"
        },
        {
          "indexed": false,
          "internalType": "uint256",
          "name": "collateralAmount",
          "type": "uint256"
        },
        {
          "indexed": false,
          "internalType": "address",
          "name": "shortTokenAddress",
          "type": "address"
        },
        {
          "indexed": false,
          "internalType": "uint256",
          "name": "shortAmount",
          "type": "uint256"
        }
      ],
      "name": "ClosePosition",
      "type": "event"
    },
    {
      "anonymous": false,
      "inputs": [
        {
          "indexed": true,
          "internalType": "address",
          "name": "target",
          "type": "address"
        },
        {
          "indexed": true,
          "internalType": "address",
          "name": "initiator",
          "type": "address"
        },
        {
          "indexed": true,
          "internalType": "address",
          "name": "asset",
          "type": "address"
        },
        {
          "indexed": false,
          "internalType": "uint256",
          "name": "amount",
          "type": "uint256"
        },
        {
          "indexed": false,
          "internalType": "uint256",
          "name": "premium",
          "type": "uint256"
        },
        {
          "indexed": false,
          "internalType": "uint16",
          "name": "referralCode",
          "type": "uint16"
        }
      ],
      "name": "FlashLoan",
      "type": "event"
    },
    {
      "anonymous": false,
      "inputs": [
        {
          "indexed": true,
          "internalType": "address",
          "name": "collateralAsset",
          "type": "address"
        },
        {
          "indexed": true,
          "internalType": "address",
          "name": "debtAsset",
          "type": "address"
        },
        {
          "indexed": true,
          "internalType": "address",
          "name": "user",
          "type": "address"
        },
        {
          "indexed": false,
          "internalType": "uint256",
          "name": "debtToCover",
          "type": "uint256"
        },
        {
          "indexed": false,
          "internalType": "uint256",
          "name": "liquidatedCollateralAmount",
          "type": "uint256"
        },
        {
          "indexed": false,
          "internalType": "address",
          "name": "liquidator",
          "type": "address"
        },
        {
          "indexed": false,
          "internalType": "bool",
          "name": "receiveAToken",
          "type": "bool"
        }
      ],
      "name": "LiquidationCall",
      "type": "event"
    },
    {
      "anonymous": false,
      "inputs": [
        {
          "indexed": false,
          "internalType": "uint256",
          "name": "id",
          "type": "uint256"
        },
        {
          "indexed": false,
          "internalType": "address",
          "name": "liquidator",
          "type": "address"
        },
        {
          "indexed": false,
          "internalType": "address",
          "name": "traderAddress",
          "type": "address"
        },
        {
          "indexed": false,
          "internalType": "address",
          "name": "collateralTokenAddress",
          "type": "address"
        },
        {
          "indexed": false,
          "internalType": "uint256",
          "name": "collateralAmount",
          "type": "uint256"
        },
        {
          "indexed": false,
          "internalType": "address",
          "name": "shortTokenAddress",
          "type": "address"
        },
        {
          "indexed": false,
          "internalType": "uint256",
          "name": "shortAmount",
          "type": "uint256"
        }
      ],
      "name": "LiquidationCallPosition",
      "type": "event"
    },
    {
      "anonymous": false,
      "inputs": [
        {
          "indexed": false,
          "internalType": "address",
          "name": "trader",
          "type": "address"
        },
        {
          "indexed": false,
          "internalType": "address",
          "name": "collateralTokenAddress",
          "type": "address"
        },
        {
          "indexed": false,
          "internalType": "address",
          "name": "shortTokenAddress",
          "type": "address"
        },
        {
          "indexed": false,
          "internalType": "uint256",
          "name": "collateralAmount",
          "type": "uint256"
        },
        {
          "indexed": false,
          "internalType": "uint256",
          "name": "shortAmount",
          "type": "uint256"
        },
        {
          "indexed": false,
          "internalType": "uint256",
          "name": "liquidationThreshold",
          "type": "uint256"
        },
        {
          "indexed": false,
          "internalType": "uint256",
          "name": "id",
          "type": "uint256"
        }
      ],
      "name": "OpenPosition",
      "type": "event"
    },
    {
      "anonymous": false,
      "inputs": [],
      "name": "Paused",
      "type": "event"
    },
    {
      "anonymous": false,
      "inputs": [
        {
          "indexed": true,
          "internalType": "address",
          "name": "reserve",
          "type": "address"
        },
        {
          "indexed": true,
          "internalType": "address",
          "name": "user",
          "type": "address"
        },
        {
          "indexed": true,
          "internalType": "address",
          "name": "repayer",
          "type": "address"
        },
        {
          "indexed": false,
          "internalType": "uint256",
          "name": "amount",
          "type": "uint256"
        }
      ],
      "name": "Repay",
      "type": "event"
    },
    {
      "anonymous": false,
      "inputs": [
        {
          "indexed": true,
          "internalType": "address",
          "name": "reserve",
          "type": "address"
        },
        {
          "indexed": false,
          "internalType": "uint256",
          "name": "liquidityRate",
          "type": "uint256"
        },
        {
          "indexed": false,
          "internalType": "uint256",
          "name": "stableBorrowRate",
          "type": "uint256"
        },
        {
          "indexed": false,
          "internalType": "uint256",
          "name": "variableBorrowRate",
          "type": "uint256"
        },
        {
          "indexed": false,
          "internalType": "uint256",
          "name": "liquidityIndex",
          "type": "uint256"
        },
        {
          "indexed": false,
          "internalType": "uint256",
          "name": "variableBorrowIndex",
          "type": "uint256"
        }
      ],
      "name": "ReserveDataUpdated",
      "type": "event"
    },
    {
      "anonymous": false,
      "inputs": [
        {
          "indexed": true,
          "internalType": "address",
          "name": "reserve",
          "type": "address"
        },
        {
          "indexed": true,
          "internalType": "address",
          "name": "user",
          "type": "address"
        }
      ],
      "name": "ReserveUsedAsCollateralDisabled",
      "type": "event"
    },
    {
      "anonymous": false,
      "inputs": [
        {
          "indexed": true,
          "internalType": "address",
          "name": "reserve",
          "type": "address"
        },
        {
          "indexed": true,
          "internalType": "address",
          "name": "user",
          "type": "address"
        }
      ],
      "name": "ReserveUsedAsCollateralEnabled",
      "type": "event"
    },
    {
      "anonymous": false,
      "inputs": [
        {
          "indexed": true,
          "internalType": "address",
          "name": "reserve",
          "type": "address"
        },
        {
          "indexed": false,
          "internalType": "address",
          "name": "user",
          "type": "address"
        },
        {
          "indexed": true,
          "internalType": "address",
          "name": "onBehalfOf",
          "type": "address"
        },
        {
          "indexed": false,
          "internalType": "uint256",
          "name": "amount",
          "type": "uint256"
        }
      ],
      "name": "Supply",
      "type": "event"
    },
    {
      "anonymous": false,
      "inputs": [],
      "name": "Unpaused",
      "type": "event"
    },
    {
      "anonymous": false,
      "inputs": [
        {
          "indexed": true,
          "internalType": "address",
          "name": "reserve",
          "type": "address"
        },
        {
          "indexed": true,
          "internalType": "address",
          "name": "user",
          "type": "address"
        },
        {
          "indexed": true,
          "internalType": "address",
          "name": "to",
          "type": "address"
        },
        {
          "indexed": false,
          "internalType": "uint256",
          "name": "amount",
          "type": "uint256"
        }
      ],
      "name": "Withdraw",
      "type": "event"
    },
    {
      "inputs": [],
      "name": "FLASHLOAN_PREMIUM_TOTAL",
      "outputs": [
        {
          "internalType": "uint256",
          "name": "",
          "type": "uint256"
        }
      ],
      "stateMutability": "view",
      "type": "function"
    },
    {
      "inputs": [],
      "name": "MAX_LEVERAGE",
      "outputs": [
        {
          "internalType": "uint256",
          "name": "",
          "type": "uint256"
        }
      ],
      "stateMutability": "view",
      "type": "function"
    },
    {
      "inputs": [],
      "name": "MAX_NUMBER_RESERVES",
      "outputs": [
        {
          "internalType": "uint256",
          "name": "",
          "type": "uint256"
        }
      ],
      "stateMutability": "view",
      "type": "function"
    },
    {
      "inputs": [],
      "name": "POSITION_LIQUIDATION_THRESHOLD",
      "outputs": [
        {
          "internalType": "uint256",
          "name": "",
          "type": "uint256"
        }
      ],
      "stateMutability": "view",
      "type": "function"
    },
    {
      "inputs": [
        {
          "internalType": "address",
          "name": "asset",
          "type": "address"
        },
        {
          "internalType": "uint256",
          "name": "amount",
          "type": "uint256"
        },
        {
          "internalType": "uint256",
          "name": "interestRateMode",
          "type": "uint256"
        },
        {
          "internalType": "address",
          "name": "onBehalfOf",
          "type": "address"
        }
      ],
      "name": "borrow",
      "outputs": [],
      "stateMutability": "nonpayable",
      "type": "function"
    },
    {
      "inputs": [
        {
          "internalType": "uint256",
          "name": "positionId",
          "type": "uint256"
        },
        {
          "internalType": "address",
          "name": "to",
          "type": "address"
        },
        {
          "internalType": "uint256",
          "name": "minLongToShortAmountOut",
          "type": "uint256"
        },
        {
          "internalType": "uint256",
          "name": "minShortToCollateralAmountOut",
          "type": "uint256"
        },
        {
          "internalType": "uint256",
          "name": "minCollateralToShortAmountOut",
          "type": "uint256"
        }
      ],
      "name": "closePosition",
      "outputs": [
        {
          "internalType": "uint256",
          "name": "paymentAmount",
          "type": "uint256"
        },
        {
          "internalType": "int256",
          "name": "pnl",
          "type": "int256"
        }
      ],
      "stateMutability": "nonpayable",
      "type": "function"
    },
    {
      "inputs": [
        {
          "internalType": "address",
          "name": "asset",
          "type": "address"
        },
        {
          "internalType": "address",
          "name": "from",
          "type": "address"
        },
        {
          "internalType": "address",
          "name": "to",
          "type": "address"
        },
        {
          "internalType": "uint256",
          "name": "amount",
          "type": "uint256"
        },
        {
          "internalType": "uint256",
          "name": "balanceFromBefore",
          "type": "uint256"
        },
        {
          "internalType": "uint256",
          "name": "balanceToBefore",
          "type": "uint256"
        }
      ],
      "name": "finalizeTransfer",
      "outputs": [],
      "stateMutability": "nonpayable",
      "type": "function"
    },
    {
      "inputs": [
        {
          "internalType": "address",
          "name": "receiverAddress",
          "type": "address"
        },
        {
          "internalType": "address[]",
          "name": "assets",
          "type": "address[]"
        },
        {
          "internalType": "uint256[]",
          "name": "amounts",
          "type": "uint256[]"
        },
        {
          "internalType": "bytes",
          "name": "params",
          "type": "bytes"
        },
        {
          "internalType": "uint16",
          "name": "referralCode",
          "type": "uint16"
        }
      ],
      "name": "flashLoan",
      "outputs": [],
      "stateMutability": "nonpayable",
      "type": "function"
    },
    {
      "inputs": [],
      "name": "getAddressesProvider",
      "outputs": [
        {
          "internalType": "contract ILendingPoolAddressesProvider",
          "name": "",
          "type": "address"
        }
      ],
      "stateMutability": "view",
      "type": "function"
    },
    {
      "inputs": [
        {
          "internalType": "address",
          "name": "asset",
          "type": "address"
        }
      ],
      "name": "getConfiguration",
      "outputs": [
        {
          "components": [
            {
              "internalType": "uint256",
              "name": "ltv",
              "type": "uint256"
            },
            {
              "internalType": "uint256",
              "name": "liquidationThreshold",
              "type": "uint256"
            },
            {
              "internalType": "uint256",
              "name": "liquidationBonus",
              "type": "uint256"
            },
            {
              "internalType": "uint8",
              "name": "decimals",
              "type": "uint8"
            },
            {
              "internalType": "bool",
              "name": "active",
              "type": "bool"
            },
            {
              "internalType": "bool",
              "name": "frozen",
              "type": "bool"
            },
            {
              "internalType": "bool",
              "name": "borrowingEnabled",
              "type": "bool"
            },
            {
              "internalType": "uint256",
              "name": "reserveFactor",
              "type": "uint256"
            }
          ],
          "internalType": "struct DataTypes.ReserveConfiguration",
          "name": "",
          "type": "tuple"
        }
      ],
      "stateMutability": "view",
      "type": "function"
    },
    {
      "inputs": [
        {
          "internalType": "address",
          "name": "asset",
          "type": "address"
        }
      ],
      "name": "getPositionConfiguration",
      "outputs": [
        {
          "components": [
            {
              "internalType": "bool",
              "name": "active",
              "type": "bool"
            },
            {
              "internalType": "bool",
              "name": "collateralEnabled",
              "type": "bool"
            },
            {
              "internalType": "bool",
              "name": "longEnabled",
              "type": "bool"
            },
            {
              "internalType": "bool",
              "name": "shortEnabled",
              "type": "bool"
            }
          ],
          "internalType": "struct DataTypes.ReservePositionConfiguration",
          "name": "",
          "type": "tuple"
        }
      ],
      "stateMutability": "view",
      "type": "function"
    },
    {
      "inputs": [
        {
          "internalType": "uint256",
          "name": "id",
          "type": "uint256"
        }
      ],
      "name": "getPositionData",
      "outputs": [
        {
          "internalType": "int256",
          "name": "pnl",
          "type": "int256"
        },
        {
          "internalType": "uint256",
          "name": "healthFactor",
          "type": "uint256"
        }
      ],
      "stateMutability": "view",
      "type": "function"
    },
    {
      "inputs": [
        {
          "internalType": "address",
          "name": "asset",
          "type": "address"
        }
      ],
      "name": "getReserveData",
      "outputs": [
        {
          "components": [
            {
              "components": [
                {
                  "internalType": "uint256",
                  "name": "ltv",
                  "type": "uint256"
                },
                {
                  "internalType": "uint256",
                  "name": "liquidationThreshold",
                  "type": "uint256"
                },
                {
                  "internalType": "uint256",
                  "name": "liquidationBonus",
                  "type": "uint256"
                },
                {
                  "internalType": "uint8",
                  "name": "decimals",
                  "type": "uint8"
                },
                {
                  "internalType": "bool",
                  "name": "active",
                  "type": "bool"
                },
                {
                  "internalType": "bool",
                  "name": "frozen",
                  "type": "bool"
                },
                {
                  "internalType": "bool",
                  "name": "borrowingEnabled",
                  "type": "bool"
                },
                {
                  "internalType": "uint256",
                  "name": "reserveFactor",
                  "type": "uint256"
                }
              ],
              "internalType": "struct DataTypes.ReserveConfiguration",
              "name": "configuration",
              "type": "tuple"
            },
            {
              "components": [
                {
                  "internalType": "bool",
                  "name": "active",
                  "type": "bool"
                },
                {
                  "internalType": "bool",
                  "name": "collateralEnabled",
                  "type": "bool"
                },
                {
                  "internalType": "bool",
                  "name": "longEnabled",
                  "type": "bool"
                },
                {
                  "internalType": "bool",
                  "name": "shortEnabled",
                  "type": "bool"
                }
              ],
              "internalType": "struct DataTypes.ReservePositionConfiguration",
              "name": "positionConfiguration",
              "type": "tuple"
            },
            {
              "internalType": "uint128",
              "name": "liquidityIndex",
              "type": "uint128"
            },
            {
              "internalType": "uint128",
              "name": "borrowIndex",
              "type": "uint128"
            },
            {
              "internalType": "uint128",
              "name": "currentLiquidityRate",
              "type": "uint128"
            },
            {
              "internalType": "uint128",
              "name": "currentBorrowRate",
              "type": "uint128"
            },
            {
              "internalType": "uint40",
              "name": "lastUpdateTimestamp",
              "type": "uint40"
            },
            {
              "internalType": "address",
              "name": "kTokenAddress",
              "type": "address"
            },
            {
              "internalType": "address",
              "name": "dTokenAddress",
              "type": "address"
            },
            {
              "internalType": "address",
              "name": "interestRateStrategyAddress",
              "type": "address"
            },
            {
              "internalType": "uint256",
              "name": "id",
              "type": "uint256"
            }
          ],
          "internalType": "struct DataTypes.ReserveData",
          "name": "",
          "type": "tuple"
        }
      ],
      "stateMutability": "view",
      "type": "function"
    },
    {
      "inputs": [
        {
          "internalType": "address",
          "name": "asset",
          "type": "address"
        }
      ],
      "name": "getReserveNormalizedDebt",
      "outputs": [
        {
          "internalType": "uint256",
          "name": "",
          "type": "uint256"
        }
      ],
      "stateMutability": "view",
      "type": "function"
    },
    {
      "inputs": [
        {
          "internalType": "address",
          "name": "asset",
          "type": "address"
        }
      ],
      "name": "getReserveNormalizedIncome",
      "outputs": [
        {
          "internalType": "uint256",
          "name": "",
          "type": "uint256"
        }
      ],
      "stateMutability": "view",
      "type": "function"
    },
    {
      "inputs": [],
      "name": "getReservesList",
      "outputs": [
        {
          "internalType": "address[]",
          "name": "",
          "type": "address[]"
        }
      ],
      "stateMutability": "view",
      "type": "function"
    },
    {
      "inputs": [
        {
          "internalType": "address",
          "name": "trader",
          "type": "address"
        }
      ],
      "name": "getTraderPositions",
      "outputs": [
        {
          "components": [
            {
              "internalType": "address",
              "name": "traderAddress",
              "type": "address"
            },
            {
              "internalType": "address",
              "name": "collateralTokenAddress",
              "type": "address"
            },
            {
              "internalType": "address",
              "name": "shortTokenAddress",
              "type": "address"
            },
            {
              "internalType": "address",
              "name": "longTokenAddress",
              "type": "address"
            },
            {
              "internalType": "uint256",
              "name": "collateralAmount",
              "type": "uint256"
            },
            {
              "internalType": "uint256",
              "name": "shortAmount",
              "type": "uint256"
            },
            {
              "internalType": "uint256",
              "name": "longAmount",
              "type": "uint256"
            },
            {
              "internalType": "uint256",
              "name": "liquidationThreshold",
              "type": "uint256"
            },
            {
              "internalType": "uint256",
              "name": "id",
              "type": "uint256"
            },
            {
              "internalType": "bool",
              "name": "isOpen",
              "type": "bool"
            }
          ],
          "internalType": "struct DataTypes.TraderPosition[]",
          "name": "positions",
          "type": "tuple[]"
        }
      ],
      "stateMutability": "view",
      "type": "function"
    },
    {
      "inputs": [],
      "name": "getTradersList",
      "outputs": [
        {
          "internalType": "address[]",
          "name": "",
          "type": "address[]"
        }
      ],
      "stateMutability": "view",
      "type": "function"
    },
    {
      "inputs": [
        {
          "internalType": "address",
          "name": "user",
          "type": "address"
        }
      ],
      "name": "getUserAccountData",
      "outputs": [
        {
          "internalType": "uint256",
          "name": "totalCollateralETH",
          "type": "uint256"
        },
        {
          "internalType": "uint256",
          "name": "totalDebtETH",
          "type": "uint256"
        },
        {
          "internalType": "uint256",
          "name": "availableBorrowsETH",
          "type": "uint256"
        },
        {
          "internalType": "uint256",
          "name": "currentLiquidationThreshold",
          "type": "uint256"
        },
        {
          "internalType": "uint256",
          "name": "ltv",
          "type": "uint256"
        },
        {
          "internalType": "uint256",
          "name": "healthFactor",
          "type": "uint256"
        }
      ],
      "stateMutability": "view",
      "type": "function"
    },
    {
      "inputs": [
        {
          "internalType": "address",
          "name": "user",
          "type": "address"
        },
        {
          "internalType": "uint256",
          "name": "id",
          "type": "uint256"
        }
      ],
      "name": "getUserConfiguration",
      "outputs": [
        {
          "internalType": "bool",
          "name": "",
          "type": "bool"
        },
        {
          "internalType": "bool",
          "name": "",
          "type": "bool"
        }
      ],
      "stateMutability": "view",
      "type": "function"
    },
    {
      "inputs": [],
      "name": "getUsersList",
      "outputs": [
        {
          "internalType": "address[]",
          "name": "",
          "type": "address[]"
        }
      ],
      "stateMutability": "view",
      "type": "function"
    },
    {
      "inputs": [
        {
          "internalType": "address",
          "name": "asset",
          "type": "address"
        },
        {
          "internalType": "address",
          "name": "kTokenAddress",
          "type": "address"
        },
        {
          "internalType": "address",
          "name": "dTokenAddress",
          "type": "address"
        },
        {
          "internalType": "address",
          "name": "interestRateStrategyAddress",
          "type": "address"
        }
      ],
      "name": "initReserve",
      "outputs": [],
      "stateMutability": "nonpayable",
      "type": "function"
    },
    {
      "inputs": [
        {
          "internalType": "address",
          "name": "collateralAsset",
          "type": "address"
        },
        {
          "internalType": "address",
          "name": "debtAsset",
          "type": "address"
        },
        {
          "internalType": "address",
          "name": "user",
          "type": "address"
        },
        {
          "internalType": "uint256",
          "name": "debtToCover",
          "type": "uint256"
        },
        {
          "internalType": "bool",
          "name": "receiveKToken",
          "type": "bool"
        }
      ],
      "name": "liquidationCall",
      "outputs": [],
      "stateMutability": "nonpayable",
      "type": "function"
    },
    {
      "inputs": [
        {
          "internalType": "uint256",
          "name": "id",
          "type": "uint256"
        }
      ],
      "name": "liquidationCallPosition",
      "outputs": [],
      "stateMutability": "nonpayable",
      "type": "function"
    },
    {
      "inputs": [],
      "name": "name",
      "outputs": [
        {
          "internalType": "string",
          "name": "",
          "type": "string"
        }
      ],
      "stateMutability": "view",
      "type": "function"
    },
    {
      "inputs": [
        {
          "internalType": "address",
          "name": "collateralAsset",
          "type": "address"
        },
        {
          "internalType": "address",
          "name": "shortAsset",
          "type": "address"
        },
        {
          "internalType": "address",
          "name": "longAsset",
          "type": "address"
        },
        {
          "internalType": "uint256",
          "name": "collateralAmount",
          "type": "uint256"
        },
        {
          "internalType": "uint256",
          "name": "leverage",
          "type": "uint256"
        },
        {
          "internalType": "uint256",
          "name": "minLongAmountOut",
          "type": "uint256"
        },
        {
          "internalType": "address",
          "name": "onBehalfOf",
          "type": "address"
        }
      ],
      "name": "openPosition",
      "outputs": [
        {
          "components": [
            {
              "internalType": "address",
              "name": "traderAddress",
              "type": "address"
            },
            {
              "internalType": "address",
              "name": "collateralTokenAddress",
              "type": "address"
            },
            {
              "internalType": "address",
              "name": "shortTokenAddress",
              "type": "address"
            },
            {
              "internalType": "address",
              "name": "longTokenAddress",
              "type": "address"
            },
            {
              "internalType": "uint256",
              "name": "collateralAmount",
              "type": "uint256"
            },
            {
              "internalType": "uint256",
              "name": "shortAmount",
              "type": "uint256"
            },
            {
              "internalType": "uint256",
              "name": "longAmount",
              "type": "uint256"
            },
            {
              "internalType": "uint256",
              "name": "liquidationThreshold",
              "type": "uint256"
            },
            {
              "internalType": "uint256",
              "name": "id",
              "type": "uint256"
            },
            {
              "internalType": "bool",
              "name": "isOpen",
              "type": "bool"
            }
          ],
          "internalType": "struct DataTypes.TraderPosition",
          "name": "position",
          "type": "tuple"
        }
      ],
      "stateMutability": "nonpayable",
      "type": "function"
    },
    {
      "inputs": [],
      "name": "paused",
      "outputs": [
        {
          "internalType": "bool",
          "name": "",
          "type": "bool"
        }
      ],
      "stateMutability": "view",
      "type": "function"
    },
    {
      "inputs": [
        {
          "internalType": "address",
          "name": "asset",
          "type": "address"
        },
        {
          "internalType": "uint256",
          "name": "amount",
          "type": "uint256"
        },
        {
          "internalType": "uint256",
          "name": "rateMode",
          "type": "uint256"
        },
        {
          "internalType": "address",
          "name": "onBehalfOf",
          "type": "address"
        }
      ],
      "name": "repay",
      "outputs": [
        {
          "internalType": "uint256",
          "name": "",
          "type": "uint256"
        }
      ],
      "stateMutability": "nonpayable",
      "type": "function"
    },
    {
      "inputs": [
        {
          "internalType": "address",
          "name": "asset",
          "type": "address"
        },
        {
          "components": [
            {
              "internalType": "uint256",
              "name": "ltv",
              "type": "uint256"
            },
            {
              "internalType": "uint256",
              "name": "liquidationThreshold",
              "type": "uint256"
            },
            {
              "internalType": "uint256",
              "name": "liquidationBonus",
              "type": "uint256"
            },
            {
              "internalType": "uint8",
              "name": "decimals",
              "type": "uint8"
            },
            {
              "internalType": "bool",
              "name": "active",
              "type": "bool"
            },
            {
              "internalType": "bool",
              "name": "frozen",
              "type": "bool"
            },
            {
              "internalType": "bool",
              "name": "borrowingEnabled",
              "type": "bool"
            },
            {
              "internalType": "uint256",
              "name": "reserveFactor",
              "type": "uint256"
            }
          ],
          "internalType": "struct DataTypes.ReserveConfiguration",
          "name": "configuration",
          "type": "tuple"
        }
      ],
      "name": "setConfiguration",
      "outputs": [],
      "stateMutability": "nonpayable",
      "type": "function"
    },
    {
      "inputs": [
        {
          "internalType": "bool",
          "name": "val",
          "type": "bool"
        }
      ],
      "name": "setPause",
      "outputs": [],
      "stateMutability": "nonpayable",
      "type": "function"
    },
    {
      "inputs": [
        {
          "internalType": "address",
          "name": "asset",
          "type": "address"
        },
        {
          "components": [
            {
              "internalType": "bool",
              "name": "active",
              "type": "bool"
            },
            {
              "internalType": "bool",
              "name": "collateralEnabled",
              "type": "bool"
            },
            {
              "internalType": "bool",
              "name": "longEnabled",
              "type": "bool"
            },
            {
              "internalType": "bool",
              "name": "shortEnabled",
              "type": "bool"
            }
          ],
          "internalType": "struct DataTypes.ReservePositionConfiguration",
          "name": "positionConfig",
          "type": "tuple"
        }
      ],
      "name": "setPositionConfiguration",
      "outputs": [],
      "stateMutability": "nonpayable",
      "type": "function"
    },
    {
      "inputs": [
        {
          "internalType": "address",
          "name": "asset",
          "type": "address"
        },
        {
          "internalType": "address",
          "name": "rateStrategyAddress",
          "type": "address"
        }
      ],
      "name": "setReserveInterestRateStrategyAddress",
      "outputs": [],
      "stateMutability": "nonpayable",
      "type": "function"
    },
    {
      "inputs": [
        {
          "internalType": "address",
          "name": "asset",
          "type": "address"
        },
        {
          "internalType": "bool",
          "name": "useAsCollateral",
          "type": "bool"
        }
      ],
      "name": "setUserUseReserveAsCollateral",
      "outputs": [],
      "stateMutability": "nonpayable",
      "type": "function"
    },
    {
      "inputs": [
        {
          "internalType": "address",
          "name": "asset",
          "type": "address"
        },
        {
          "internalType": "uint256",
          "name": "amount",
          "type": "uint256"
        },
        {
          "internalType": "address",
          "name": "onBehalfOf",
          "type": "address"
        }
      ],
      "name": "supply",
      "outputs": [],
      "stateMutability": "nonpayable",
      "type": "function"
    },
    {
      "inputs": [
        {
          "internalType": "address",
          "name": "asset",
          "type": "address"
        },
        {
          "internalType": "uint256",
          "name": "amount",
          "type": "uint256"
        },
        {
          "internalType": "address",
          "name": "to",
          "type": "address"
        }
      ],
      "name": "withdraw",
      "outputs": [
        {
          "internalType": "uint256",
          "name": "",
          "type": "uint256"
        }
      ],
      "stateMutability": "nonpayable",
      "type": "function"
    }
  ],
  "bytecode": "0x60806040523480156200001157600080fd5b5060405162005a4b38038062005a4b833981016040819052620000349162000153565b600080546001600160a01b0319166001600160a01b0384161790556000196010556b409f9cbc7c4a04c2200000006014556a108b2a2c2802909400000060135580516200008990600190602084019062000097565b50506005601255506200028f565b828054620000a59062000253565b90600052602060002090601f016020900481019282620000c9576000855562000114565b82601f10620000e457805160ff191683800117855562000114565b8280016001018555821562000114579182015b8281111562000114578251825591602001919060010190620000f7565b506200012292915062000126565b5090565b5b8082111562000122576000815560010162000127565b634e487b7160e01b600052604160045260246000fd5b600080604083850312156200016757600080fd5b82516001600160a01b03811681146200017f57600080fd5b602084810151919350906001600160401b03808211156200019f57600080fd5b818601915086601f830112620001b457600080fd5b815181811115620001c957620001c96200013d565b604051601f8201601f19908116603f01168101908382118183101715620001f457620001f46200013d565b8160405282815289868487010111156200020d57600080fd5b600093505b8284101562000231578484018601518185018701529285019262000212565b82841115620002435760008684830101525b8096505050505050509250929050565b600181811c908216806200026857607f821691505b6020821081036200028957634e487b7160e01b600052602260045260246000fd5b50919050565b6157ac806200029f6000396000f3fe608060405234801561001057600080fd5b50600436106102405760003560e01c80638b2a4df511610145578063c44b11f7116100bd578063d1946dbc1161008c578063e7e7d62a11610071578063e7e7d62a146108c8578063f8119d51146108db578063fe65acfe146108e357600080fd5b8063d1946dbc146108ad578063d5ed3933146108b557600080fd5b8063c44b11f71461078e578063c74e13f31461087f578063c84555bd14610887578063d15e00531461089a57600080fd5b80639b45ec9711610114578063a5b7ba32116100f9578063a5b7ba3214610728578063bedb86fb1461073b578063bf92857c1461074e57600080fd5b80639b45ec9714610718578063a1bdfe7b1461072057600080fd5b80638b2a4df5146106b55780638bd25677146106c85780638ed08ba3146106db5780639a62d6b7146106ee57600080fd5b80633a1e3569116101d85780635a3b74b9116101a75780635fbbb2ff1161018c5780635fbbb2ff146105cf578063629e06b5146105ef57806369328dec146106a257600080fd5b80635a3b74b9146105a65780635c975abb146105b957600080fd5b80633a1e3569146105585780633f4a408c1461056b57806352ebdcba14610580578063573ade811461059357600080fd5b80631d2118f9116102145780631d2118f9146102b257806322e953ac146102c55780632971bb25146102d857806335ea6a75146102f857600080fd5b8062a718a91461024557806306fdde031461025a578063074b2e43146102785780630f415acb1461028a575b600080fd5b610258610253366004614352565b61090b565b005b610262610be9565b60405161026f9190614425565b60405180910390f35b6012545b60405190815260200161026f565b61029d610298366004614438565b610c7b565b6040805192835260208301919091520161026f565b6102586102c0366004614451565b610f37565b6102586102d336600461448a565b610f95565b6102eb6102e63660046144d4565b61112d565b60405161026f9190614629565b61054b610306366004614638565b60408051610260810182526000610160820181815261018083018290526101a083018290526101c083018290526101e0830182905261020083018290526102208301829052610240830182905282528251608080820185528282526020808301849052828601849052606080840185905290850192909252938301829052820181905291810182905260a0810182905260c0810182905260e08101829052610100810182905261012081018290526101408101919091525073ffffffffffffffffffffffffffffffffffffffff908116600090815260026020818152604092839020835161026081018552815461016082019081526001830154610180830152938201546101a0820152600382015460ff8082166101c0840152610100808304821615156101e08501526201000080840483161515610200860152630100000093849004831615156102208601526004860154610240860152968452875160808082018a5260058701548085161515835283810485161515838a015298890484161515828b01529390970490911615156060808801919091529483019590955260068301546fffffffffffffffffffffffffffffffff80821697840197909752700100000000000000000000000000000000908190048716948301949094526007830154808716918301919091529290920490931660a0820152600883015464ffffffffff811660c0830152650100000000009004841660e08201526009830154841691810191909152600a820154909216610120830152600b015461014082015290565b60405161026f9190614655565b61029d61056636600461479d565b61143c565b61057361168a565b60405161026f91906147e5565b61025861058e36600461483f565b61175b565b61027c6105a136600461448a565b61179d565b6102586105b436600461489e565b61187a565b600f5460ff16604051901515815260200161026f565b6105e26105dd366004614638565b611ae9565b60405161026f91906148cc565b6106956105fd366004614638565b6040805160808101825260008082526020820181905291810182905260608101919091525073ffffffffffffffffffffffffffffffffffffffff16600090815260026020908152604091829020825160808101845260059091015460ff808216151583526101008204811615159383019390935262010000810483161515938201939093526301000000909204161515606082015290565b60405161026f919061490f565b61027c6106b0366004614942565b611ced565b6102586106c3366004614942565b611ed4565b6102586106d6366004614984565b611fb4565b6102586106e9366004614438565b6120de565b6107016106fc3660046149d5565b612254565b60408051921515835290151560208301520161026f565b60145461027c565b60135461027c565b61027c610736366004614638565b6122a1565b610258610749366004614a01565b6122d5565b61076161075c366004614638565b61236d565b604080519687526020870195909552938501929092526060840152608083015260a082015260c00161026f565b61087261079c366004614638565b6040805161010081018252600080825260208201819052918101829052606081018290526080810182905260a0810182905260c0810182905260e08101919091525073ffffffffffffffffffffffffffffffffffffffff1660009081526002602081815260409283902083516101008082018652825482526001830154938201939093529281015493830193909352600383015460ff80821660608501529181048216151560808401526201000081048216151560a08401526301000000900416151560c082015260049091015460e082015290565b60405161026f9190614a1e565b610573612477565b610258610895366004614a7f565b612542565b61027c6108a8366004614638565b61257b565b6105736125a9565b6102586108c3366004614ad2565b612674565b6102586108d6366004614b93565b61293f565b60105461027c565b60005460405173ffffffffffffffffffffffffffffffffffffffff909116815260200161026f565b610913612ab8565b60008073__$87dec17cfff18bfe82b6c8da4ce4819f95$__638904217e6040518060e001604052808a73ffffffffffffffffffffffffffffffffffffffff1681526020018973ffffffffffffffffffffffffffffffffffffffff1681526020018873ffffffffffffffffffffffffffffffffffffffff1681526020018781526020018615158152602001600854815260200160008054906101000a900473ffffffffffffffffffffffffffffffffffffffff1673ffffffffffffffffffffffffffffffffffffffff1663fca513a86040518163ffffffff1660e01b8152600401602060405180830381865afa158015610a10573d6000803e3d6000fd5b505050506040513d601f19601f82011682018060405250810190610a349190614c88565b73ffffffffffffffffffffffffffffffffffffffff908116909152604080517fffffffff0000000000000000000000000000000000000000000000000000000060e086901b16815283518316600482015260208401518316602482015290830151821660448201526060830151606482015260808301511515608482015260a083015160a482015260c0909201511660c4820152600260e482015260036101048201526007610124820152610144016040805180830381865af4158015610aff573d6000803e3d6000fd5b505050506040513d601f19601f82011682018060405250810190610b239190614cb4565b9092509050603382603d811115610b3c57610b3c614ce7565b14610b476012612b01565b90610b88576040517f08c379a0000000000000000000000000000000000000000000000000000000008152600401610b7f9190614425565b60405180910390fd5b50603d81603d811115610b9d57610b9d614ce7565b14610ba782612b01565b90610bdf576040517f08c379a0000000000000000000000000000000000000000000000000000000008152600401610b7f9190614425565b5050505050505050565b606060018054610bf890614d16565b80601f0160208091040260200160405190810160405280929190818152602001828054610c2490614d16565b8015610c715780601f10610c4657610100808354040283529160200191610c71565b820191906000526020600020905b815481529060010190602001808311610c5457829003601f168201915b5050505050905090565b600080600060046000858152602001908152602001600020905073__$4704719058cb47f66e81a2e55cafd4efea$__63f974324582600260008054906101000a900473ffffffffffffffffffffffffffffffffffffffff1673ffffffffffffffffffffffffffffffffffffffff1663fca513a86040518163ffffffff1660e01b8152600401602060405180830381865afa158015610d1d573d6000803e3d6000fd5b505050506040513d601f19601f82011682018060405250810190610d419190614c88565b6040517fffffffff0000000000000000000000000000000000000000000000000000000060e086901b1681526004810193909352602483019190915273ffffffffffffffffffffffffffffffffffffffff166044820152606401602060405180830381865af4158015610db8573d6000803e3d6000fd5b505050506040513d601f19601f82011682018060405250810190610ddc9190614d63565b925073__$4704719058cb47f66e81a2e55cafd4efea$__6371237ade828360070154600260008054906101000a900473ffffffffffffffffffffffffffffffffffffffff1673ffffffffffffffffffffffffffffffffffffffff1663fca513a86040518163ffffffff1660e01b8152600401602060405180830381865afa158015610e6b573d6000803e3d6000fd5b505050506040513d601f19601f82011682018060405250810190610e8f9190614c88565b6040517fffffffff0000000000000000000000000000000000000000000000000000000060e087901b16815260048101949094526024840192909252604483015273ffffffffffffffffffffffffffffffffffffffff166064820152608401602060405180830381865af4158015610f0b573d6000803e3d6000fd5b505050506040513d601f19601f82011682018060405250810190610f2f9190614d63565b915050915091565b610f3f612b1d565b73ffffffffffffffffffffffffffffffffffffffff9182166000908152600260205260409020600a0180547fffffffffffffffffffffffff00000000000000000000000000000000000000001691909216179055565b610f9d612ab8565b73__$6e04419b6a9764d8fa15da42f2cbdaf7dc$__6367911c9e6040518061010001604052808773ffffffffffffffffffffffffffffffffffffffff1681526020013373ffffffffffffffffffffffffffffffffffffffff1681526020018473ffffffffffffffffffffffffffffffffffffffff16815260200186815260200185815260200160011515815260200160008054906101000a900473ffffffffffffffffffffffffffffffffffffffff1673ffffffffffffffffffffffffffffffffffffffff1663fca513a86040518163ffffffff1660e01b8152600401602060405180830381865afa158015611097573d6000803e3d6000fd5b505050506040513d601f19601f820116820180604052508101906110bb9190614c88565b73ffffffffffffffffffffffffffffffffffffffff1681526020016008548152506002600360076040518563ffffffff1660e01b81526004016111019493929190614d7c565b60006040518083038186803b15801561111957600080fd5b505af4158015610bdf573d6000803e3d6000fd5b6040805161014081018252600080825260208201819052918101829052606081018290526080810182905260a0810182905260c0810182905260e081018290526101008101829052610120810191909152611186612ab8565b61118e612bd0565b73__$ab336399f1a59c7f444dc8961b8ee7980a$__63dda0d401604051806101a001604052808b73ffffffffffffffffffffffffffffffffffffffff1681526020018a73ffffffffffffffffffffffffffffffffffffffff1681526020018973ffffffffffffffffffffffffffffffffffffffff1681526020018881526020018781526020018681526020018573ffffffffffffffffffffffffffffffffffffffff1681526020013073ffffffffffffffffffffffffffffffffffffffff16815260200160145481526020016013548152602001600554815260200160008054906101000a900473ffffffffffffffffffffffffffffffffffffffff1673ffffffffffffffffffffffffffffffffffffffff1663725c9c496040518163ffffffff1660e01b8152600401602060405180830381865afa1580156112d5573d6000803e3d6000fd5b505050506040513d601f19601f820116820180604052508101906112f99190614c88565b73ffffffffffffffffffffffffffffffffffffffff16815260200160008054906101000a900473ffffffffffffffffffffffffffffffffffffffff1673ffffffffffffffffffffffffffffffffffffffff1663fca513a86040518163ffffffff1660e01b8152600401602060405180830381865afa15801561137f573d6000803e3d6000fd5b505050506040513d601f19601f820116820180604052508101906113a39190614c88565b73ffffffffffffffffffffffffffffffffffffffff1681525060026040518363ffffffff1660e01b81526004016113db929190614e31565b61014060405180830381865af41580156113f9573d6000803e3d6000fd5b505050506040513d601f19601f8201168201806040525081019061141d9190614ff7565b905061142881612be1565b61143182612f7d565b979650505050505050565b600080611447612ab8565b61144f612bd0565b73__$ab336399f1a59c7f444dc8961b8ee7980a$__633ef725ab6040518061010001604052808a81526020018973ffffffffffffffffffffffffffffffffffffffff1681526020013073ffffffffffffffffffffffffffffffffffffffff16815260200188815260200187815260200186815260200160008054906101000a900473ffffffffffffffffffffffffffffffffffffffff1673ffffffffffffffffffffffffffffffffffffffff1663725c9c496040518163ffffffff1660e01b8152600401602060405180830381865afa158015611530573d6000803e3d6000fd5b505050506040513d601f19601f820116820180604052508101906115549190614c88565b73ffffffffffffffffffffffffffffffffffffffff16815260200160008054906101000a900473ffffffffffffffffffffffffffffffffffffffff1673ffffffffffffffffffffffffffffffffffffffff1663fca513a86040518163ffffffff1660e01b8152600401602060405180830381865afa1580156115da573d6000803e3d6000fd5b505050506040513d601f19601f820116820180604052508101906115fe9190614c88565b73ffffffffffffffffffffffffffffffffffffffff168152506002600360046040518563ffffffff1660e01b815260040161163c949392919061509d565b6040805180830381865af4158015611658573d6000803e3d6000fd5b505050506040513d601f19601f8201168201806040525081019061167c919061514a565b909890975095505050505050565b60606000600e5467ffffffffffffffff8111156116a9576116a9614f6c565b6040519080825280602002602001820160405280156116d2578160200160208202803683370190505b50905060005b600e54811015611755576000818152600c6020526040902054825173ffffffffffffffffffffffffffffffffffffffff9091169083908390811061171e5761171e61516e565b73ffffffffffffffffffffffffffffffffffffffff909216602092830291909101909101528061174d816151cc565b9150506116d8565b50919050565b611763612b1d565b73ffffffffffffffffffffffffffffffffffffffff8216600090815260026020526040902081906005016117978282615211565b50505050565b60006117a7612ab8565b6040517f2f69e3ef00000000000000000000000000000000000000000000000000000000815273ffffffffffffffffffffffffffffffffffffffff808716600483015260248201869052604482018590528316606482015260026084820152600360a482015260009073__$6e04419b6a9764d8fa15da42f2cbdaf7dc$__90632f69e3ef9060c401602060405180830381865af415801561184c573d6000803e3d6000fd5b505050506040513d601f19601f820116820180604052508101906118709190614d63565b9695505050505050565b611882612ab8565b73ffffffffffffffffffffffffffffffffffffffff808316600090815260026020818152604080842033855260038352818520600854955483517ffca513a80000000000000000000000000000000000000000000000000000000081529351929773__$21c34b8e29a99d314827d472f0e1c85fe6$__97635fa297e5978a978d978d97929695600795169263fca513a8926004808401939192918290030181865afa158015611935573d6000803e3d6000fd5b505050506040513d601f19601f820116820180604052508101906119599190614c88565b6040517fffffffff0000000000000000000000000000000000000000000000000000000060e08b901b168152600481019890985273ffffffffffffffffffffffffffffffffffffffff968716602489015294151560448801526064870193909352608486019190915260a485015260c48401521660e48201526101040160006040518083038186803b1580156119ee57600080fd5b505af4158015611a02573d6000803e3d6000fd5b5050336000908152600360209081526040808320600b8701548452909152902080547fffffffffffffffffffffffffffffffffffffffffffffffffffffffffffffff001685158015919091179091559150611aa0905057604051339073ffffffffffffffffffffffffffffffffffffffff8516907e058a56ea94653cdf4f152d227ace22d4c00ad99e2a43f58cb7d9e3feb295f290600090a3505050565b604051339073ffffffffffffffffffffffffffffffffffffffff8516907f44c58d81365b66dd4b1a7f36c25aa97b8c71c361ee4937adc1a00000227db5dd90600090a35b505050565b73ffffffffffffffffffffffffffffffffffffffff81166000908152600660205260409020546060908067ffffffffffffffff811115611b2b57611b2b614f6c565b604051908082528060200260200182016040528015611bc857816020015b604080516101408101825260008082526020808301829052928201819052606082018190526080820181905260a0820181905260c0820181905260e08201819052610100820181905261012082015282527fffffffffffffffffffffffffffffffffffffffffffffffffffffffffffffffff909201910181611b495790505b50915060005b81811015611ce65773ffffffffffffffffffffffffffffffffffffffff84166000908152600660205260409020805482908110611c0d57611c0d61516e565b60009182526020918290206040805161014081018252600a909302909101805473ffffffffffffffffffffffffffffffffffffffff9081168452600182015481169484019490945260028101548416918301919091526003810154909216606082015260048201546080820152600582015460a0820152600682015460c0820152600782015460e0820152600882015461010082015260099091015460ff1615156101208201528351849083908110611cc857611cc861516e565b60200260200101819052508080611cde906151cc565b915050611bce565b5050919050565b6000611cf7612ab8565b600073__$6e04419b6a9764d8fa15da42f2cbdaf7dc$__63321661dd6040518060a001604052808873ffffffffffffffffffffffffffffffffffffffff1681526020018781526020018673ffffffffffffffffffffffffffffffffffffffff168152602001600854815260200160008054906101000a900473ffffffffffffffffffffffffffffffffffffffff1673ffffffffffffffffffffffffffffffffffffffff1663fca513a86040518163ffffffff1660e01b8152600401602060405180830381865afa158015611dcf573d6000803e3d6000fd5b505050506040513d601f19601f82011682018060405250810190611df39190614c88565b73ffffffffffffffffffffffffffffffffffffffff908116909152604080517fffffffff0000000000000000000000000000000000000000000000000000000060e086901b16815283518316600482015260208401516024820152908301518216604482015260608301516064820152608090920151166084820152600260a4820152600360c4820152600760e482015261010401602060405180830381865af4158015611ea5573d6000803e3d6000fd5b505050506040513d601f19601f82011682018060405250810190611ec99190614d63565b9150505b9392505050565b611edc612ab8565b6040805160608101825273ffffffffffffffffffffffffffffffffffffffff85811682526020820185815284821683850190815293517f02d5d45e00000000000000000000000000000000000000000000000000000000815292518216600484015251602483015291519091166044820152600260648201526003608482015273__$6e04419b6a9764d8fa15da42f2cbdaf7dc$__906302d5d45e9060a40160006040518083038186803b158015611f9357600080fd5b505af4158015611fa7573d6000803e3d6000fd5b50505050611ae48161304f565b611fbc612b1d565b73ffffffffffffffffffffffffffffffffffffffff84163b1515611fe0600b612b01565b90612018576040517f08c379a0000000000000000000000000000000000000000000000000000000008152600401610b7f9190614425565b5073ffffffffffffffffffffffffffffffffffffffff8481166000908152600260205260409081902090517f6047157f000000000000000000000000000000000000000000000000000000008152600481019190915284821660248201528382166044820152908216606482015273__$88ad6b597226e6a1892b63b4d2c629f9bc$__90636047157f9060840160006040518083038186803b1580156120bd57600080fd5b505af41580156120d1573d6000803e3d6000fd5b505050506117978461311f565b6120e6612ab8565b6120ee612bd0565b73__$87dec17cfff18bfe82b6c8da4ce4819f95$__63eeb302cf604051806040016040528084815260200160008054906101000a900473ffffffffffffffffffffffffffffffffffffffff1673ffffffffffffffffffffffffffffffffffffffff1663fca513a86040518163ffffffff1660e01b8152600401602060405180830381865afa158015612184573d6000803e3d6000fd5b505050506040513d601f19601f820116820180604052508101906121a89190614c88565b73ffffffffffffffffffffffffffffffffffffffff9081169091526040517fffffffff0000000000000000000000000000000000000000000000000000000060e085901b168152825160048281019190915260209093015190911660248201526002604482015260036064820152608481019190915260a40160006040518083038186803b15801561223957600080fd5b505af415801561224d573d6000803e3d6000fd5b5050505050565b73ffffffffffffffffffffffffffffffffffffffff821660009081526003602090815260408083208484528083528184205460019091019092529091205460ff91821691165b9250929050565b73ffffffffffffffffffffffffffffffffffffffff811660009081526002602052604081206122cf9061325e565b92915050565b6122dd612b1d565b600f80547fffffffffffffffffffffffffffffffffffffffffffffffffffffffffffffff001682151590811790915560ff1615612340576040517f9e87fac88ff661f02d44f95383c817fece4bce600a3dab7a54406878b965e75290600090a150565b6040517fa45f47fdea8a1efdd9029a5691c7f759c32b7c698632b563573e155625d1693390600090a15b50565b600080600080600080612454876002600360008b73ffffffffffffffffffffffffffffffffffffffff1673ffffffffffffffffffffffffffffffffffffffff168152602001908152602001600020600760085460008054906101000a900473ffffffffffffffffffffffffffffffffffffffff1673ffffffffffffffffffffffffffffffffffffffff1663fca513a86040518163ffffffff1660e01b8152600401602060405180830381865afa15801561242b573d6000803e3d6000fd5b505050506040513d601f19601f8201168201806040525081019061244f9190614c88565b6132fc565b9399509197509094509250905061246c868684613cce565b935091939550919395565b60606000600b5467ffffffffffffffff81111561249657612496614f6c565b6040519080825280602002602001820160405280156124bf578160200160208202803683370190505b50905060005b600b5481101561175557600081815260096020526040902054825173ffffffffffffffffffffffffffffffffffffffff9091169083908390811061250b5761250b61516e565b73ffffffffffffffffffffffffffffffffffffffff909216602092830291909101909101528061253a816151cc565b9150506124c5565b61254a612b1d565b73ffffffffffffffffffffffffffffffffffffffff8216600090815260026020526040902081906117978282615311565b73ffffffffffffffffffffffffffffffffffffffff811660009081526002602052604081206122cf90613cf9565b6060600060085467ffffffffffffffff8111156125c8576125c8614f6c565b6040519080825280602002602001820160405280156125f1578160200160208202803683370190505b50905060005b60085481101561175557600081815260076020526040902054825173ffffffffffffffffffffffffffffffffffffffff9091169083908390811061263d5761263d61516e565b73ffffffffffffffffffffffffffffffffffffffff909216602092830291909101909101528061266c816151cc565b9150506125f7565b61267c612ab8565b73ffffffffffffffffffffffffffffffffffffffff8681166000908152600260205260409020600801546501000000000090041633146126bc6013612b01565b906126f4576040517f08c379a0000000000000000000000000000000000000000000000000000000008152600401610b7f9190614425565b506127d3856002600360008973ffffffffffffffffffffffffffffffffffffffff1673ffffffffffffffffffffffffffffffffffffffff168152602001908152602001600020600760085460008054906101000a900473ffffffffffffffffffffffffffffffffffffffff1673ffffffffffffffffffffffffffffffffffffffff1663fca513a86040518163ffffffff1660e01b8152600401602060405180830381865afa1580156127aa573d6000803e3d6000fd5b505050506040513d601f19601f820116820180604052508101906127ce9190614c88565b613d5f565b73ffffffffffffffffffffffffffffffffffffffff8087166000908152600260205260409020600b01549086811690861614612936576128138385613d8b565b60000361289e5773ffffffffffffffffffffffffffffffffffffffff80871660008181526003602090815260408083208684529182905280832080547fffffffffffffffffffffffffffffffffffffffffffffffffffffffffffffff001690555190938b16917f44c58d81365b66dd4b1a7f36c25aa97b8c71c361ee4937adc1a00000227db5dd91a3505b811580156128ab57508315155b156129365773ffffffffffffffffffffffffffffffffffffffff80861660008181526003602090815260408083208684529182905280832080547fffffffffffffffffffffffffffffffffffffffffffffffffffffffffffffff001660011790555190938b16917e058a56ea94653cdf4f152d227ace22d4c00ad99e2a43f58cb7d9e3feb295f291a3505b50505050505050565b612947612ab8565b73__$6e04419b6a9764d8fa15da42f2cbdaf7dc$__63a78224996040518060c001604052808b73ffffffffffffffffffffffffffffffffffffffff1681526020018a8a808060200260200160405190810160405280939291908181526020018383602002808284376000920191909152505050908252506040805160208a810282810182019093528a82529283019290918b918b918291850190849080828437600092019190915250505090825250604080516020601f89018190048102820181019092528781529181019190889088908190840183828082843760009201919091525050509082525061ffff85166020820152601254604091820152517fffffffff0000000000000000000000000000000000000000000000000000000060e084901b168152612a7e9190600290600401615489565b60006040518083038186803b158015612a9657600080fd5b505af4158015612aaa573d6000803e3d6000fd5b505050505050505050505050565b600f5460ff1615612ac9600c612b01565b9061236a576040517f08c379a0000000000000000000000000000000000000000000000000000000008152600401610b7f9190614425565b60606122cf82603d811115612b1857612b18614ce7565b613d97565b6000546040517f747e301f000000000000000000000000000000000000000000000000000000008152306004820152339173ffffffffffffffffffffffffffffffffffffffff169063747e301f90602401602060405180830381865afa158015612b8b573d6000803e3d6000fd5b505050506040513d601f19601f82011682018060405250810190612baf9190614c88565b73ffffffffffffffffffffffffffffffffffffffff1614612ac96011612b01565b60115460ff1615612ac9600d612b01565b8060046000600554815260200190815260200160002060008201518160000160006101000a81548173ffffffffffffffffffffffffffffffffffffffff021916908373ffffffffffffffffffffffffffffffffffffffff16021790555060208201518160010160006101000a81548173ffffffffffffffffffffffffffffffffffffffff021916908373ffffffffffffffffffffffffffffffffffffffff16021790555060408201518160020160006101000a81548173ffffffffffffffffffffffffffffffffffffffff021916908373ffffffffffffffffffffffffffffffffffffffff16021790555060608201518160030160006101000a81548173ffffffffffffffffffffffffffffffffffffffff021916908373ffffffffffffffffffffffffffffffffffffffff1602179055506080820151816004015560a0820151816005015560c0820151816006015560e0820151816007015561010082015181600801556101208201518160090160006101000a81548160ff0219169083151502179055509050506005546004600060055481526020019081526020016000206008018190555060066000826000015173ffffffffffffffffffffffffffffffffffffffff1673ffffffffffffffffffffffffffffffffffffffff1681526020019081526020016000208190806001815401808255809150506001900390600052602060002090600a020160009091909190915060008201518160000160006101000a81548173ffffffffffffffffffffffffffffffffffffffff021916908373ffffffffffffffffffffffffffffffffffffffff16021790555060208201518160010160006101000a81548173ffffffffffffffffffffffffffffffffffffffff021916908373ffffffffffffffffffffffffffffffffffffffff16021790555060408201518160020160006101000a81548173ffffffffffffffffffffffffffffffffffffffff021916908373ffffffffffffffffffffffffffffffffffffffff16021790555060608201518160030160006101000a81548173ffffffffffffffffffffffffffffffffffffffff021916908373ffffffffffffffffffffffffffffffffffffffff1602179055506080820151816004015560a0820151816005015560c0820151816006015560e0820151816007015561010082015181600801556101208201518160090160006101000a81548160ff02191690831515021790555050506005546001612f779190615587565b60055550565b73ffffffffffffffffffffffffffffffffffffffff81166000908152600d602052604090205460ff1615156001148061304b5773ffffffffffffffffffffffffffffffffffffffff82166000818152600d6020908152604080832080547fffffffffffffffffffffffffffffffffffffffffffffffffffffffffffffff00166001908117909155600b548452600c90925290912080547fffffffffffffffffffffffff000000000000000000000000000000000000000016909217909155600e5461304791615587565b600e555b5050565b73ffffffffffffffffffffffffffffffffffffffff81166000908152600a602052604090205460ff1615156001148061304b5773ffffffffffffffffffffffffffffffffffffffff82166000818152600a6020908152604080832080547fffffffffffffffffffffffffffffffffffffffffffffffffffffffffffffff00166001908117909155600b805485526009909352922080547fffffffffffffffffffffffff000000000000000000000000000000000000000016909317909255905461311891615587565b600b555050565b6008546010805482109061313290612b01565b9061316a576040517f08c379a0000000000000000000000000000000000000000000000000000000008152600401610b7f9190614425565b5073ffffffffffffffffffffffffffffffffffffffff82166000908152600260205260408120600b01541515806131e357506000805260076020527f6d5257204ebe7d88fd91ae87941cb2dd9d8062b64ae5a2bd2d28ec40b9fbf6df5473ffffffffffffffffffffffffffffffffffffffff8481169116145b905080611ae45773ffffffffffffffffffffffffffffffffffffffff83166000818152600260209081526040808320600b018690558583526007909152902080547fffffffffffffffffffffffff0000000000000000000000000000000000000000169091179055613256826001615587565b600855505050565b600881015460009064ffffffffff90811690421681036132a75750506006015470010000000000000000000000000000000090046fffffffffffffffffffffffffffffffff1690565b600683015460078401546000916132f4916fffffffffffffffffffffffffffffffff700100000000000000000000000000000000928390048116926132ee92041685613ecc565b90613ed9565b949350505050565b6000808080806001815b8881101561336557600081815260208c9052604090205460ff16151560011480613345575060008181526001808d0160205260409091205460ff161515145b156133535760009150613365565b8061335d816151cc565b915050613306565b5080156133a3576000806000807fffffffffffffffffffffffffffffffffffffffffffffffffffffffffffffffff9550955095509550955050613cc0565b5061344e6040518061024001604052806000815260200160008152602001600081526020016000815260200160008152602001600081526020016000815260200160008152602001600081526020016000815260200160008152602001600081526020016000815260200160008152602001600015158152602001600073ffffffffffffffffffffffffffffffffffffffff1681526020016000151581526020016000151581525090565b600060e08201525b878160e001511015613c1f5760e0810151600090815260208b9052604090205460ff1680613499575060e0810151600090815260018b01602052604090205460ff165b15613c07578860008260e00151815260200190815260200160002060009054906101000a900473ffffffffffffffffffffffffffffffffffffffff16816101e0019073ffffffffffffffffffffffffffffffffffffffff16908173ffffffffffffffffffffffffffffffffffffffff168152505060008b6000836101e0015173ffffffffffffffffffffffffffffffffffffffff1673ffffffffffffffffffffffffffffffffffffffff1681526020019081526020016000206040518061016001604052908160008201604051806101000160405290816000820154815260200160018201548152602001600282015481526020016003820160009054906101000a900460ff1660ff1660ff1681526020016003820160019054906101000a900460ff161515151581526020016003820160029054906101000a900460ff161515151581526020016003820160039054906101000a900460ff161515151581526020016004820154815250508152602001600582016040518060800160405290816000820160009054906101000a900460ff161515151581526020016000820160019054906101000a900460ff161515151581526020016000820160029054906101000a900460ff161515151581526020016000820160039054906101000a900460ff16151515158152505081526020016006820160009054906101000a90046fffffffffffffffffffffffffffffffff166fffffffffffffffffffffffffffffffff166fffffffffffffffffffffffffffffffff1681526020016006820160109054906101000a90046fffffffffffffffffffffffffffffffff166fffffffffffffffffffffffffffffffff166fffffffffffffffffffffffffffffffff1681526020016007820160009054906101000a90046fffffffffffffffffffffffffffffffff166fffffffffffffffffffffffffffffffff166fffffffffffffffffffffffffffffffff1681526020016007820160109054906101000a90046fffffffffffffffffffffffffffffffff166fffffffffffffffffffffffffffffffff166fffffffffffffffffffffffffffffffff1681526020016008820160009054906101000a900464ffffffffff1664ffffffffff1664ffffffffff1681526020016008820160059054906101000a900473ffffffffffffffffffffffffffffffffffffffff1673ffffffffffffffffffffffffffffffffffffffff1673ffffffffffffffffffffffffffffffffffffffff1681526020016009820160009054906101000a900473ffffffffffffffffffffffffffffffffffffffff1673ffffffffffffffffffffffffffffffffffffffff1673ffffffffffffffffffffffffffffffffffffffff168152602001600a820160009054906101000a900473ffffffffffffffffffffffffffffffffffffffff1673ffffffffffffffffffffffffffffffffffffffff1673ffffffffffffffffffffffffffffffffffffffff168152602001600b8201548152505090508060000151600001518260a00181815250508060000151602001518260c001818152505080600001516060015160ff168260800181815250508160800151600a61393291906156bf565b60208301526101e08201516040517fb3596f0700000000000000000000000000000000000000000000000000000000815273ffffffffffffffffffffffffffffffffffffffff91821660048201529089169063b3596f0790602401602060405180830381865afa1580156139aa573d6000803e3d6000fd5b505050506040513d601f19601f820116820180604052508101906139ce9190614d63565b825260c0820151158015906139f6575060e0820151600090815260208c9052604090205460ff165b15613b1d5760e08101516040517f70a0823100000000000000000000000000000000000000000000000000000000815273ffffffffffffffffffffffffffffffffffffffff8f81166004830152909116906370a0823190602401602060405180830381865afa158015613a6d573d6000803e3d6000fd5b505050506040513d601f19601f82011682018060405250810190613a919190614d63565b6040830181905260208301518351600092613ab69291613ab091613fbb565b90613fc7565b610120840151909150613ac99082613fd3565b61012084015260a0830151613aef90613ae3908390613fbb565b61016085015190613fd3565b61016084015260c0830151613b1590613b09908390613fbb565b61018085015190613fd3565b610180840152505b60e0820151600090815260018c01602052604090205460ff1615613c05576101008101516040517f70a0823100000000000000000000000000000000000000000000000000000000815273ffffffffffffffffffffffffffffffffffffffff8f81166004830152909116906370a0823190602401602060405180830381865afa158015613bae573d6000803e3d6000fd5b505050506040513d601f19601f82011682018060405250810190613bd29190614d63565b6060830181905260208301518351613bfe92613bf29291613ab091613fbb565b61014084015190613fd3565b6101408301525b505b60e08101805190613c17826151cc565b905250613456565b600081610120015111613c33576000613c48565b610120810151610160820151613c4891613fc7565b610160820152610120810151613c5f576000613c74565b610120810151610180820151613c7491613fc7565b6101808201819052610120820151610140830151613c9192613fdf565b610100820181905261012082015161014083015161016084015161018090940151919850965091945090925090505b965096509650965096915050565b600080613cdb8584614024565b905083811015613cef576000915050611ecd565b611ec98185613d8b565b600881015460009064ffffffffff9081169042168103613d2e575050600601546fffffffffffffffffffffffffffffffff1690565b600683015460078401546000916132f4916fffffffffffffffffffffffffffffffff918216916132ee9116856140d4565b6000613d6f8787878787876132fc565b945050505050670de0b6b3a7640000811015610ba76025612b01565b6000611ecd82846156cb565b606081600003613dda57505060408051808201909152600181527f3000000000000000000000000000000000000000000000000000000000000000602082015290565b8160005b8115613e045780613dee816151cc565b9150613dfd9050600a83615711565b9150613dde565b60008167ffffffffffffffff811115613e1f57613e1f614f6c565b6040519080825280601f01601f191660200182016040528015613e49576020820181803683370190505b5090505b84156132f457613e5e6001836156cb565b9150613e6b600a86615725565b613e76906030615587565b60f81b818381518110613e8b57613e8b61516e565b60200101907effffffffffffffffffffffffffffffffffffffffffffffffffffffffffffff1916908160001a905350613ec5600a86615711565b9450613e4d565b6000611ecd838342614119565b6000821580613ee6575081155b15613ef3575060006122cf565b81613f0b60026b033b2e3c9fd0803ce8000000615711565b613f35907fffffffffffffffffffffffffffffffffffffffffffffffffffffffffffffffff6156cb565b613f3f9190615711565b831115613f4c6004612b01565b90613f84576040517f08c379a0000000000000000000000000000000000000000000000000000000008152600401610b7f9190614425565b506b033b2e3c9fd0803ce8000000613f9d600282615711565b613fa78486615739565b613fb19190615587565b611ecd9190615711565b6000611ecd8284615739565b6000611ecd8284615711565b6000611ecd8284615587565b60008260000361401057507fffffffffffffffffffffffffffffffffffffffffffffffffffffffffffffffff611ecd565b6132f48361401e8685614024565b90614220565b6000821580614031575081155b1561403e575060006122cf565b8161404c6002612710615711565b614076907fffffffffffffffffffffffffffffffffffffffffffffffffffffffffffffffff6156cb565b6140809190615711565b83111561408d6004612b01565b906140c5576040517f08c379a0000000000000000000000000000000000000000000000000000000008152600401610b7f9190614425565b50612710613f9d600282615711565b6000806140e84264ffffffffff8516613d8b565b90506132f46b033b2e3c9fd0803ce80000006301e133806141098785613fbb565b6141139190615711565b90613fd3565b60008061412d8364ffffffffff8616613d8b565b90508060000361414c576b033b2e3c9fd0803ce8000000915050611ecd565b60006141596001836156cb565b905060006002831161416c576000614177565b6141776002846156cb565b905060006141896301e1338089615711565b905060006141978280613ed9565b905060006141a58284613ed9565b9050600060026141bf846141b98a8a613fbb565b90613fbb565b6141c99190615711565b9050600060066141df846141b989818d8d613fbb565b6141e99190615711565b90506142108161411384816141fe8a8e613fbb565b6b033b2e3c9fd0803ce8000000614113565b9c9b505050505050505050505050565b600081151561422f6005612b01565b90614267576040517f08c379a0000000000000000000000000000000000000000000000000000000008152600401610b7f9190614425565b506000614275600284615711565b9050670de0b6b3a76400006142aa827fffffffffffffffffffffffffffffffffffffffffffffffffffffffffffffffff6156cb565b6142b49190615711565b8411156142c16004612b01565b906142f9576040517f08c379a0000000000000000000000000000000000000000000000000000000008152600401610b7f9190614425565b50828161430e670de0b6b3a764000087615739565b6143189190615587565b6132f49190615711565b73ffffffffffffffffffffffffffffffffffffffff8116811461236a57600080fd5b801515811461236a57600080fd5b600080600080600060a0868803121561436a57600080fd5b853561437581614322565b9450602086013561438581614322565b9350604086013561439581614322565b92506060860135915060808601356143ac81614344565b809150509295509295909350565b6000815180845260005b818110156143e0576020818501810151868301820152016143c4565b818111156143f2576000602083870101525b50601f017fffffffffffffffffffffffffffffffffffffffffffffffffffffffffffffffe0169290920160200192915050565b602081526000611ecd60208301846143ba565b60006020828403121561444a57600080fd5b5035919050565b6000806040838503121561446457600080fd5b823561446f81614322565b9150602083013561447f81614322565b809150509250929050565b600080600080608085870312156144a057600080fd5b84356144ab81614322565b9350602085013592506040850135915060608501356144c981614322565b939692955090935050565b600080600080600080600060e0888a0312156144ef57600080fd5b87356144fa81614322565b9650602088013561450a81614322565b9550604088013561451a81614322565b9450606088013593506080880135925060a0880135915060c088013561453f81614322565b8091505092959891949750929550565b805173ffffffffffffffffffffffffffffffffffffffff1682526020810151614590602084018273ffffffffffffffffffffffffffffffffffffffff169052565b5060408101516145b8604084018273ffffffffffffffffffffffffffffffffffffffff169052565b5060608101516145e0606084018273ffffffffffffffffffffffffffffffffffffffff169052565b506080810151608083015260a081015160a083015260c081015160c083015260e081015160e0830152610100808201518184015250610120808201516117978285018215159052565b61014081016122cf828461454f565b60006020828403121561464a57600080fd5b8135611ecd81614322565b60006102a0820190506146bb82845180518252602081015160208301526040810151604083015260ff606082015116606083015260808101511515608083015260a0810151151560a083015260c0810151151560c083015260e081015160e08301525050565b60208301516101006146f8818501838051151582526020810151151560208301526040810151151560408301526060810151151560608301525050565b60408501516fffffffffffffffffffffffffffffffff908116610180860152606086015181166101a0860152608086015181166101c086015260a0860151166101e085015260c085015164ffffffffff1661020085015260e085015173ffffffffffffffffffffffffffffffffffffffff9081166102208601529085015181166102408501526101208501511661026084015250610140909201516102809091015290565b600080600080600060a086880312156147b557600080fd5b8535945060208601356147c781614322565b94979496505050506040830135926060810135926080909101359150565b6020808252825182820181905260009190848201906040850190845b8181101561483357835173ffffffffffffffffffffffffffffffffffffffff1683529284019291840191600101614801565b50909695505050505050565b60008082840360a081121561485357600080fd5b833561485e81614322565b925060807fffffffffffffffffffffffffffffffffffffffffffffffffffffffffffffffe08201121561489057600080fd5b506020830190509250929050565b600080604083850312156148b157600080fd5b82356148bc81614322565b9150602083013561447f81614344565b6020808252825182820181905260009190848201906040850190845b81811015614833576148fb83855161454f565b9284019261014092909201916001016148e8565b815115158152602080830151151590820152604080830151151590820152606080830151151590820152608081016122cf565b60008060006060848603121561495757600080fd5b833561496281614322565b925060208401359150604084013561497981614322565b809150509250925092565b6000806000806080858703121561499a57600080fd5b84356149a581614322565b935060208501356149b581614322565b925060408501356149c581614322565b915060608501356144c981614322565b600080604083850312156149e857600080fd5b82356149f381614322565b946020939093013593505050565b600060208284031215614a1357600080fd5b8135611ecd81614344565b61010081016122cf828480518252602081015160208301526040810151604083015260ff606082015116606083015260808101511515608083015260a0810151151560a083015260c0810151151560c083015260e081015160e08301525050565b600080828403610120811215614a9457600080fd5b8335614a9f81614322565b92506101007fffffffffffffffffffffffffffffffffffffffffffffffffffffffffffffffe08201121561489057600080fd5b60008060008060008060c08789031215614aeb57600080fd5b8635614af681614322565b95506020870135614b0681614322565b94506040870135614b1681614322565b959894975094956060810135955060808101359460a0909101359350915050565b60008083601f840112614b4957600080fd5b50813567ffffffffffffffff811115614b6157600080fd5b6020830191508360208260051b850101111561229a57600080fd5b803561ffff81168114614b8e57600080fd5b919050565b60008060008060008060008060a0898b031215614baf57600080fd5b8835614bba81614322565b9750602089013567ffffffffffffffff80821115614bd757600080fd5b614be38c838d01614b37565b909950975060408b0135915080821115614bfc57600080fd5b614c088c838d01614b37565b909750955060608b0135915080821115614c2157600080fd5b818b0191508b601f830112614c3557600080fd5b813581811115614c4457600080fd5b8c6020828501011115614c5657600080fd5b602083019550809450505050614c6e60808a01614b7c565b90509295985092959890939650565b8051614b8e81614322565b600060208284031215614c9a57600080fd5b8151611ecd81614322565b8051603e8110614b8e57600080fd5b60008060408385031215614cc757600080fd5b614cd083614ca5565b9150614cde60208401614ca5565b90509250929050565b7f4e487b7100000000000000000000000000000000000000000000000000000000600052602160045260246000fd5b600181811c90821680614d2a57607f821691505b602082108103611755577f4e487b7100000000000000000000000000000000000000000000000000000000600052602260045260246000fd5b600060208284031215614d7557600080fd5b5051919050565b60006101608201905073ffffffffffffffffffffffffffffffffffffffff80875116835280602088015116602084015280604088015116604084015250606086015160608301526080860151608083015260a0860151614de060a084018215159052565b5060c0860151614e0860c084018273ffffffffffffffffffffffffffffffffffffffff169052565b5060e086015160e083015284610100830152836101208301528261014083015295945050505050565b825173ffffffffffffffffffffffffffffffffffffffff1681526101c081016020840151614e77602084018273ffffffffffffffffffffffffffffffffffffffff169052565b506040840151614e9f604084018273ffffffffffffffffffffffffffffffffffffffff169052565b50606084015160608301526080840151608083015260a084015160a083015260c0840151614ee560c084018273ffffffffffffffffffffffffffffffffffffffff169052565b5060e0840151614f0d60e084018273ffffffffffffffffffffffffffffffffffffffff169052565b506101008481015190830152610120808501519083015261014080850151908301526101608085015173ffffffffffffffffffffffffffffffffffffffff908116918401919091526101809485015116938201939093526101a0015290565b7f4e487b7100000000000000000000000000000000000000000000000000000000600052604160045260246000fd5b604051610140810167ffffffffffffffff81118282101715614fe6577f4e487b7100000000000000000000000000000000000000000000000000000000600052604160045260246000fd5b60405290565b8051614b8e81614344565b6000610140828403121561500a57600080fd5b615012614f9b565b61501b83614c7d565b815261502960208401614c7d565b602082015261503a60408401614c7d565b604082015261504b60608401614c7d565b60608201526080830151608082015260a083015160a082015260c083015160c082015260e083015160e0820152610100808401518183015250610120615092818501614fec565b908201529392505050565b60006101608201905085518252602086015173ffffffffffffffffffffffffffffffffffffffff8082166020850152806040890151166040850152606088015160608501526080880151608085015260a088015160a08501528060c08901511660c0850152505060e086015161512b60e084018273ffffffffffffffffffffffffffffffffffffffff169052565b5084610100830152836101208301528261014083015295945050505050565b6000806040838503121561515d57600080fd5b505080516020909101519092909150565b7f4e487b7100000000000000000000000000000000000000000000000000000000600052603260045260246000fd5b7f4e487b7100000000000000000000000000000000000000000000000000000000600052601160045260246000fd5b60007fffffffffffffffffffffffffffffffffffffffffffffffffffffffffffffffff82036151fd576151fd61519d565b5060010190565b600081356122cf81614344565b813561521c81614344565b7fffffffffffffffffffffffffffffffffffffffffffffffffffffffffffffff0082541660ff82151516811783555050602082013561525a81614344565b81547fffffffffffffffffffffffffffffffffffffffffffffffffffffffffffff00ff1681151560081b61ff001617825550604082013561529a81614344565b81547fffffffffffffffffffffffffffffffffffffffffffffffffffffffffff00ffff1681151560101b62ff0000161782555060608201356152db81614344565b81547fffffffffffffffffffffffffffffffffffffffffffffffffffffffff00ffffff1690151560181b63ff0000001617905550565b81358155602082013560018201556040820135600282015560038101606083013560ff811680821461534257600080fd5b82547fffffffffffffffffffffffffffffffffffffffffffffffffffffffffffffff0016178255506153b061537960808501615204565b8280547fffffffffffffffffffffffffffffffffffffffffffffffffffffffffffff00ff1691151560081b61ff0016919091179055565b6153f76153bf60a08501615204565b8280547fffffffffffffffffffffffffffffffffffffffffffffffffffffffffff00ffff1691151560101b62ff000016919091179055565b61543f61540660c08501615204565b8280547fffffffffffffffffffffffffffffffffffffffffffffffffffffffff00ffffff1691151560181b63ff00000016919091179055565b5060e082013560048201555050565b600081518084526020808501945080840160005b8381101561547e57815187529582019590820190600101615462565b509495945050505050565b604081526000610100820173ffffffffffffffffffffffffffffffffffffffff80865116604085015260208087015160c06060870152838151808652610120880191508383019550600092505b808310156154f8578551851682529483019460019290920191908301906154d6565b50604089015194507fffffffffffffffffffffffffffffffffffffffffffffffffffffffffffffffc0935083878203016080880152615537818661544e565b945050506060870151828685030160a087015261555484826143ba565b9350506080870151915061556e60c086018361ffff169052565b60a0969096015160e08501525093909101919091525090565b6000821982111561559a5761559a61519d565b500190565b600181815b808511156155f857817fffffffffffffffffffffffffffffffffffffffffffffffffffffffffffffffff048211156155de576155de61519d565b808516156155eb57918102915b93841c93908002906155a4565b509250929050565b60008261560f575060016122cf565b8161561c575060006122cf565b8160018114615632576002811461563c57615658565b60019150506122cf565b60ff84111561564d5761564d61519d565b50506001821b6122cf565b5060208310610133831016604e8410600b841016171561567b575081810a6122cf565b615685838361559f565b807fffffffffffffffffffffffffffffffffffffffffffffffffffffffffffffffff048211156156b7576156b761519d565b029392505050565b6000611ecd8383615600565b6000828210156156dd576156dd61519d565b500390565b7f4e487b7100000000000000000000000000000000000000000000000000000000600052601260045260246000fd5b600082615720576157206156e2565b500490565b600082615734576157346156e2565b500690565b6000817fffffffffffffffffffffffffffffffffffffffffffffffffffffffffffffffff04831182151516156157715761577161519d565b50029056fea2646970667358221220155c6859cb3c48857f4645e0a2764a74ae97cc41d8187d35f820c3ea2abb9ca164736f6c634300080e0033",
  "linkReferences": {
    "contracts/Library/Logic/GenericLogic.sol": {
      "GenericLogic": [
        {
          "length": 20,
          "start": 3894
        },
        {
          "length": 20,
          "start": 4223
        }
      ]
    },
    "contracts/Library/Logic/LiquidationLogic.sol": {
      "LiquidationLogic": [
        {
          "length": 20,
          "start": 2999
        },
        {
          "length": 20,
          "start": 9103
        }
      ]
    },
    "contracts/Library/Logic/MarginLogic.sol": {
      "MarginLogic": [
        {
          "length": 20,
          "start": 5167
        },
        {
          "length": 20,
          "start": 5872
        }
      ]
    },
    "contracts/Library/Logic/MarketLogic.sol": {
      "MarketLogic": [
        {
          "length": 20,
          "start": 4670
        },
        {
          "length": 20,
          "start": 6833
        },
        {
          "length": 20,
          "start": 8090
        },
        {
          "length": 20,
          "start": 8701
        },
        {
          "length": 20,
          "start": 11240
        }
      ]
    },
    "contracts/Library/Logic/ReserveLogic.sol": {
      "ReserveLogic": [
        {
          "length": 20,
          "start": 8999
        }
      ]
    },
    "contracts/Library/Logic/ValidationLogic.sol": {
      "ValidationLogic": [
        {
          "length": 20,
          "start": 7044
        }
      ]
    }
  },
  "deployedLinkReferences": {
    "contracts/Library/Logic/GenericLogic.sol": {
      "GenericLogic": [
        {
          "length": 20,
          "start": 3223
        },
        {
          "length": 20,
          "start": 3552
        }
      ]
    },
    "contracts/Library/Logic/LiquidationLogic.sol": {
      "LiquidationLogic": [
        {
          "length": 20,
          "start": 2328
        },
        {
          "length": 20,
          "start": 8432
        }
      ]
    },
    "contracts/Library/Logic/MarginLogic.sol": {
      "MarginLogic": [
        {
          "length": 20,
          "start": 4496
        },
        {
          "length": 20,
          "start": 5201
        }
      ]
    },
    "contracts/Library/Logic/MarketLogic.sol": {
      "MarketLogic": [
        {
          "length": 20,
          "start": 3999
        },
        {
          "length": 20,
          "start": 6162
        },
        {
          "length": 20,
          "start": 7419
        },
        {
          "length": 20,
          "start": 8030
        },
        {
          "length": 20,
          "start": 10569
        }
      ]
    },
    "contracts/Library/Logic/ReserveLogic.sol": {
      "ReserveLogic": [
        {
          "length": 20,
          "start": 8328
        }
      ]
    },
    "contracts/Library/Logic/ValidationLogic.sol": {
      "ValidationLogic": [
        {
          "length": 20,
          "start": 6373
        }
      ]
    }
  }
}